:020000040800F2
:10000000680D002089010008910100089301000893
:100010009501000897010008990100080000000000
:100020000000000000000000000000009B0100082C
:100030009D010008000000009F010008A1010008C8
:10004000A3010008A3010008A3010008A301000800
:10005000A3010008A3010008A3010008A3010008F0
:10006000A3010008A3010008A3010008A3010008E0
:10007000A3010008A301000855030008A30100081C
:10008000A3010008A3010008A3010008A3010008C0
:10009000A3010008A3010008A3010008A3010008B0
:1000A000A3010008A3010008A3010008A3010008A0
:1000B000A3010008050E0008A3010008A301000821
:1000C000A3010008A3010008A3010008A301000880
:1000D000A3010008990F0008A3010008A30100086C
:1000E000A3010008A3010008A301000800F002F822
:1000F00000F03AF80AA090E8000C82448344AAF188
:100100000107DA4501D100F02FF8AFF2090EBAE885
:100110000F0013F0010F18BFFB1A43F0010318473B
:100120004C1800006C180000103A24BF78C878C141
:10013000FAD8520724BF30C830C144BF04680C60ED
:10014000704700000023002400250026103A28BF35
:1001500078C1FBD8520728BF30C148BF0B60704739
:100160001FB51FBD10B510BD00F07AF81146FFF79E
:10017000F7FF01F09DF800F098F803B4FFF7F2FFE5
:1001800003BC00F09DF8000009488047094800477B
:10019000FEE7FEE7FEE7FEE7FEE7FEE7FEE7FEE737
:1001A000FEE7FEE704480549054A064B7047000094
:1001B000050D0008ED00000868070020680D00200C
:1001C00068090020680900204FF000020429C0F0EF
:1001D000128010F0030C00F01E80CCF1040CBCF176
:1001E000020F18BF00F8012BA8BF20F8022BA1EBCB
:1001F0000C0100F010B85FEAC17C24BF00F8012BAD
:1002000000F8012B48BF00F8012B7047704770477A
:1002100070474FF0000200B51346944696462039C9
:1002200022BFA0E80C50A0E80C50B1F12001BFF4AF
:10023000F7AF090728BFA0E80C5048BF0CC05DF815
:1002400004EB890028BF40F8042B08BF704748BF63
:1002500020F8022B11F0804F18BF00F8012B7047D7
:10026000754600F029F8AE4605006946534620F071
:100270000700854618B020B5FFF794FFBDE8204081
:100280004FF000064FF000074FF000084FF0000B52
:1002900021F00701AC46ACE8C009ACE8C009ACE805
:1002A000C009ACE8C0098D4670470446AFF3008032
:1002B0002046FFF762FF0000004870470407002057
:1002C00001491820ABBEFEE726000200704700007F
:1002D00000B58DB01B48406940F0010019494861E4
:1002E0000E208DF8040001208DF8050000208DF807
:1002F000060001208DF8070001A800F0DDF9124882
:1003000000F080F8114802901148039010200490EA
:100310000A20059000200690802007900020089079
:10032000099020200A9000020B9000200C9002A956
:10033000054800F01AF901220221034800F00CF9E7
:100340000DB000BD001002404400024004380140DE
:10035000500600200948006800F4005068B10748C2
:10036000406C20F00100054948640846406840F4AC
:100370007040486000200249087070470000024049
:100380004C00002000B58BB01448406940F00100DB
:1003900012494861124800F035F81248009012489E
:1003A00001900020029040F2DC5003900020049065
:1003B0008020059000200690079008904FF4405050
:1003C000099000200A906946054800F0CEF8012106
:1003D000034800F00BF80BB000BD00000010024015
:1003E00058000240043801407400002021B1026826
:1003F00042F00102026004E002684FF6FE731A4008
:100400000260704701684FF6FE72114001600021E2
:10041000016041608160C1604B49884208D14A490E
:100420000839496841F00F01474A083A51608AE0AB
:1004300045491431884208D143490839496841F097
:10044000F001414A083A51607DE03F492831884235
:1004500008D13D490839496841F470613A4A083A7F
:10046000516070E038493C31884208D1364908393A
:10047000496841F47041344A083A516063E03249B6
:100480005031884208D130490839496841F4702117
:100490002D4A083A516056E02B496431884208D110
:1004A00029490839496841F47001274A083A5160DE
:1004B00049E025497831884208D1234908394968FB
:1004C00041F07061204A083A51603CE01F4988427F
:1004D00006D1011F096841F00F01021F116032E0CF
:1004E0001A491431884208D11849091F096841F096
:1004F000F001164A121F116025E014492831884284
:1005000008D11249091F096841F470610F4A121F8E
:10051000116018E00D493C31884208D10B49091F90
:10052000096841F47041094A121F11600BE0074944
:100530005031884207D10549091F096841F47021EB
:10054000024A121F1160704708000240080402406E
:100550000146486880B270471AB103680B430360D4
:1005600002E003688B430360704710B50022026805
:1005700047F6F0739A430C6A8B6823430C69234354
:100580004C6923438C692343CC6923434C6A23433E
:100590008C6A23431A430260CB6843600B68836014
:1005A0004B68C36010BD4160704700E0401E0028EA
:1005B000FCD170470549096821F01001034A116018
:1005C0001146096801431160704700000020024095
:1005D00001460020034A106800F03800084310600C
:1005E00070470000002002401A48806940F008006F
:1005F000184988611848006820F0FF001649086013
:100600000846006840F033000860081D006800F0EC
:100610007F40091D086008460068104908430E49DC
:10062000091D08600C480C30006840F003000A49BE
:100630000C3108600846006840F4407008600846C5
:10064000006840F400500860481503491431086000
:100650007047000000100240000C01403377340066
:1006600000B5FFF7C1FF00BD01460548006880B234
:1006700000EBC100034A32F8100080B2704700005E
:10068000505C00400060004001464906084A9269FB
:1006900042F00102064B9A61064A526822F0E0627B
:1006A000044B5A601A4652680A435A607047000069
:1006B000001002400000014070B5002100230F220D
:1006C000C47804B3154C246804F4E064C4F5E06411
:1006D000210AC1F10403CA40447804FA03F1847882
:1006E0001440214309010E4C0678A155047804F00A
:1006F0001F050124AC4005786D11AD0005F1E02522
:10070000C5F8004109E0047804F01F050124AC405D
:10071000044D0678761145F8264070BD0CED00E0DA
:1007200000E400E080E100E002490143024A116078
:10073000704700000000FA050CED00E010B5012143
:10074000084600F001F810BD29B1064A526902437B
:10075000044B5A6104E0034A52698243014B5A61D7
:10076000704700000010024029B1064AD2690243D6
:10077000044BDA6104E0034AD2698243014BDA6137
:10078000704700000010024010B500F0B1FAFFF70A
:10079000D5FF0020FFF778FF10BD00000F4800686C
:1007A00040F001000D490860084640680C490840C7
:1007B0000A494860084600680A4908400749086035
:1007C0000846006820F4802008600846406820F44D
:1007D000FE0048604FF41F00886070470010024020
:1007E0000000FFF8FFFFF6FE30B5002100220024D4
:1007F00000232D4D6D6805F00C0121B1042905D0B1
:10080000082923D105E0294D056022E0274D056028
:100810001FE0254D6D6805F47012234D6D6805F4D9
:100820008034022505EB92421CB9214D55430560E9
:100830000BE01D4D6D6805F400351DB11C4D554391
:10084000056002E0194D5543056002E0174D056053
:1008500000BF00BF144D6D6805F0F0010909154D8A
:100860006B5C0568DD4045600F4D6D6805F4E06127
:10087000090A104D6B5C4568DD4085600A4D6D6866
:1008800005F46051C90A0B4D6B5C4568DD40C560DD
:10089000054D6D6805F44041890B074D6B5CC568DB
:1008A000B5FBF3F5056130BD0010024000127A007F
:1008B00000093D00600000207000002010B50146D6
:1008C0000022002300204A11012A02D1094C23688A
:1008D00006E0022A02D1074C236A01E0054C636A54
:1008E00001F01F02012494401C400CB1012000E0E3
:1008F000002010BD001002400248406800F00C00CB
:10090000704700000010024001460020034A506872
:1009100020F0F000084350607047000000100240D3
:100920001149096821F480310F4A116011460968A4
:1009300021F480211160B0F5803F03D0B0F5802F05
:100940000ED106E00849096841F48031064A116079
:1009500007E00549096841F4A021034A116000E05D
:1009600000BF00BF70470000001002400146002099
:10097000034A506820F4E06008435060704700006C
:100980000010024001460020034A506820F46050E5
:1009900040EAC100506070470010024001490866FB
:1009A000704700000000424202460020044B586895
:1009B00020F47C1042EA01031843014B5860704751
:1009C0000010024001460020034A506820F0030056
:1009D0000843506070470000001002400149086061
:1009E00070470000D800424238B500200090002433
:1009F000002500BF3120FFF761FF05460098401C2D
:100A000000900098B0F5A06F01D0002DF2D03120F9
:100A1000FFF754FF08B1012400E00024204638BD50
:100A200000B53248806940F00400304988610846CA
:100A3000806940F4805088612D48006820F470205F
:100A40002B4908600846006840F440300860284898
:100A50000C30006840F0100025490C310860081D7A
:100A6000006840F01000091D086021480068C0F3CC
:100A700013001F490860084600681E4908431C49C6
:100A800008601B480C30006840F0E00018490C3149
:100A9000086019480088184908800846008840F412
:100AA000007008800846008840F48070088008467E
:100AB000008840F004000880084600880880084646
:100AC000008808800846008808800846008840F0B2
:100AD000380008800846008808800846008840F0F2
:100AE00040000880FF2000F009F800BD001002401F
:100AF000000801400000B0BB003001400246002168
:100B000005E0491CB1F5FA7F01D9002070470D4876
:100B1000008900F002000028F3D00A4882810021F9
:100B200005E0491CB1F5FA7F01D90020EEE7054840
:100B3000008900F001000028F3D002488089C0B28B
:100B4000E4E700000030014010B5FFF727FE4FF446
:100B50008030FFF7E5FEFFF747FF184908700846A9
:100B60000078012828D11020FFF724FD0220FFF78C
:100B70002FFD0020FFF7C8FE0020FFF703FF4FF412
:100B80008060FFF7F3FE4FF4E0114FF48030FFF781
:100B90000BFF0120FFF702FF00BF3920FFF78EFE99
:100BA0000028FAD00220FFF70DFF00BFFFF7A4FED8
:100BB0000828FBD1FFF7E8FD10BD00005F00002012
:100BC000044A126892B202EBC002921C024B43F834
:100BD00012107047505C004000600040094B03EB6E
:100BE0008002D2F8002C48F6BF7302EA030181F0BC
:100BF000100181F02001034B03EB8002C2F8001CBE
:100C0000704700000050004010B500F001F810BD22
:100C10000CB50020019000903348006840F480300B
:100C20003149086000BF3048006800F4003000908F
:100C30000198401C0190009818B90198B0F5A06F78
:100C4000F1D12948006800F4003010B10120009073
:100C500001E0002000900098012843D1234800685B
:100C600040F01000214908600846006820F00300A9
:100C700008600846006840F0020008601A484068B2
:100C8000194948600846406848600846406840F492
:100C9000806048600846406820F47C104860084640
:100CA000406840F4E81048600846006840F08070F2
:100CB000086000BF0C48006800F000700028F9D000
:100CC0000948406820F0030007494860084640682A
:100CD00040F00200486000BF0348406800F00C008C
:100CE0000828F9D10CBD000000100240002002408D
:100CF00010B50020FFF772FE0121C805FFF734FD93
:100D000010BD000010B51348006840F00100114903
:100D1000086008464068104908400E494860084687
:100D200000680E4908400B4908600846006820F436
:100D3000802008600846406820F4FE0048604FF4B8
:100D40001F008860FFF760FF4FF0006004490860F3
:100D500010BD0000001002400000FFF8FFFFF6FE8B
:100D600008ED00E0102001490860704710080140BC
:100D700010200149086070471408014010B503466F
:100D80000C4603B104B910BD04E00020FFF7B6FE25
:100D900003F8010B2000A4F101018CB2F5D100BFD2
:100DA000F1E710B503460C4603B104B910BD03E0EA
:100DB00013F8010BFFF7A2FE2000A4F101018CB291
:100DC000F6D100BFF2E770B504460D46164644EA78
:100DD000050040EA0601012000F068FD70BD70B515
:100DE00005466C1CC4F30741212000F05FFDC4F3ED
:100DF0000721222000F05AFDE1B2232000F056FD29
:100E000070BD00000B48008800F0010018B14FF4DD
:100E10000070094908600748008820F00100054972
:100E2000088004481038008820F00100014910397A
:100E30000880704710040040140C014010B541F6C2
:100E40001F4140F6B73000F017F810BD08B54FF459
:100E50008060FFF769FC1D208DF8000002208DF8EE
:100E6000010000208DF8020001208DF80300684683
:100E7000FFF722FC08BD000070B505460C4611487E
:100E8000C06940F002000F49C8610F480580001F8B
:100E900004800D482038008840F001000A492039BC
:100EA00008800846008840F04000088006482C383A
:100EB000008840F0010004492C390880FFF7C6FF84
:100EC00070BD0000001002402C04004000B585B049
:100ED0002E48806940F004002C49886108468069EA
:100EE00040F4804088612A48006820F47F602849E7
:100EF00008600846006840F40B6008604FF4E13079
:100F000001900020ADF80800ADF80A00ADF80C0023
:100F1000ADF810000C20ADF80E0001A91D4800F03E
:100F2000E1F8002240F226611A4800F0ACF80022F5
:100F300040F22551174800F0A6F8012240F2244162
:100F4000144800F0A0F84FF48060FFF7EDFB252077
:100F50008DF8000002208DF8010001208DF80200BC
:100F60008DF803006846FFF7A7FB0122802109489E
:100F700000F056F801224021064800F051F8012106
:100F8000044800F041F805B000BD00000010024028
:100F9000040801400038014010B540F224411648D1
:100FA00000F047F828B31448008814490860124834
:100FB000001D0088086000211148FFF717FA10484B
:100FC000FFF7C6FA40F2DC51081A0C49086040F2FB
:100FD000DC510B48FFF7E7FA01210948FFF706FA51
:100FE000064800880749488001200870002003490E
:100FF000086000BF10BD000000380140480000201C
:10100000580002405800002021B1828942F4005269
:10101000828104E082894DF6FF731A408281704715
:101020001AB1838A0B43838202E0838A8B438382D3
:10103000704770B50246002400230025002040F6CA
:101040006A16B14200D100BFC1F3421501F01F037F
:10105000012606FA03F3012D02D19689334006E0FA
:10106000022D02D1168A334001E0968A33400C12D9
:10107000012606FA04F41688344013B10CB101209D
:1010800000E0002070BDF0B50346002400260025D6
:10109000002040F66A17B94200D100BF1846C1F3DC
:1010A000421401F01F06012707FA06F5012C01D1B1
:1010B0000C3004E0022C01D1103000E014301AB1E1
:1010C00007682F43076002E00768AF430760F0BD81
:1010D00010B5FFF7FDF8FFF755F9FFF7F7FE00BF72
:1010E00010BD00002DE9F04786B005460E460024ED
:1010F000A24600BFA1460027B08900B100BF2F461D
:101100002C8A4CF6FF700440F08804432C82AC8992
:101110004EF6F3100440B0883189084371890843C2
:101120000443AC81AC8A4FF6FF400440B0890443CD
:10113000AC8201A8FFF758FB1F48874202D1DDF8B7
:1011400010A001E0DDF80CA0A88900F4004040B137
:101150000AEBCA0000EB0A1031684900B0FBF1F855
:1011600007E00AEBCA0000EB0A1031688900B0FB07
:10117000F1F86420B8FBF0F004012009642101FBC0
:101180001089A88900F4004040B1322000EBC9006A
:10119000B0FBF1F000F00700044308E0322000EB60
:1011A00009106421B0FBF1F000F00F0004432C8122
:1011B00006B0BDE8F08700000038014070B5054674
:1011C0000C460120FFF750FA0646224631462846D3
:1011D00000F01CF821460120FFF7F2FC0120FFF788
:1011E000FDFC70BD0120074908700748406C40F0C5
:1011F00001000549486400BF024800780028FBD17F
:10120000704700004C00002000000240F0B514467A
:1012100004F1010C4FEA6C07DFF824C00CEB41032A
:101220003D460AE00678401C90F800C046EA0C22D1
:1012300023F8022B9B1C401C6D1E002DF2D1F0BD2B
:10124000006000404FF0E021096921F004014FF0F7
:10125000E0221161C21700EB5272C2F3C702074BC2
:101260001A701946097801EB4102C2EBC1114FF621
:10127000FF7202EAC101024A118070474E0000204D
:101280005000002000BF00BF00BF00BF00BF00BF74
:1012900000BF00BF704700004FF4005003490860D2
:1012A000C010091F0860400008607047140C01401E
:1012B000FFF74AFC4FF47A70FFF777F94820FFF701
:1012C000C1FF4FF47A70FFF770F9FFF7C9F94FF4D7
:1012D0007A70FFF76AF9FFF7DFFF002404E042F2BB
:1012E0001070FFF762F9641C642CF8D300F010FA58
:1012F000FFF7EEFE42F21070FFF757F9FFF79EFD81
:101300004FF47A70FFF751F9002403E06448FFF7C7
:101310004CF9641C642CF9D34FF4007061490860E7
:10132000002403E05E48FFF740F9641C142CF9D355
:101330004FF400705B49091D0860002403E0584821
:10134000FFF733F9641C322CF9D3A7E05648007834
:1013500038B1002054490870FFF744FF002053497A
:10136000088050480838006800F48050002861D098
:1013700000204D4908704E4800F0A8F84B490880FD
:1013800008460088002851D04FF480704549091D57
:10139000086047480078052814D1002045490870A6
:1013A0004549088000F0FCF9002400E0641CB4F515
:1013B000FA6FFBD300F002FA002400E0641CB4F5DD
:1013C000FA6FFBD339480188394800F04BFA3848A6
:1013D00000F002FA3549088000203549334A128866
:1013E000885432480088401C3049088008460188EB
:1013F0002F4800F06DFA304800882C4909880844CD
:101400002D4908802B48007880B908460088B0F53F
:10141000966F0BDD012027490870400221490860C2
:101420002648008840F00100244908804FF480706D
:101430001C4908602248007880B3002020490870C9
:101440000846408840281DDD4888C11700EB91619F
:10145000C1F387111B4A117010460078401C1146D9
:101460000870002409E0184901EB84104021FFF7BF
:10147000A5FE0B48FFF799F8641C124800788442D7
:10148000F1D303E040211048FFF798FE0C48418853
:101490000D48FEF799FE00200949488056E70000F4
:1014A000A0860100100C0140000000205600002022
:1014B0005A06002053000020540000200004004081
:1014C000580000205C0000207400002010B5024687
:1014D000002000BF8D4B1B6803F48053002BF9D014
:1014E00000BF8A4B1B6803F48063002BF9D1FCE03A
:1014F000002100BF854B1B6803F48063002BF9D0EB
:10150000824B1B6803F400630BB141F0800105E0DE
:101510007E4B1B6803F4805303B9EEE07B4B1B68E2
:1015200003F48063002BF3D100BF784B1B6803F4F6
:101530008063002BF9D0754B1B6803F400630BB17B
:1015400041F0400105E0714B1B6803F4805303B97F
:10155000D3E06E4B1B6803F48063002BF3D100BF14
:101560006A4B1B6803F48063002BF9D0674B1B6840
:1015700003F400630BB141F0200105E0634B1B68ED
:1015800003F4805303B9B8E0604B1B6803F4806335
:10159000002BF3D100BF5D4B1B6803F48063002B6D
:1015A000F9D05A4B1B6803F400630BB141F01001F2
:1015B00005E0564B1B6803F4805303B99DE0534B81
:1015C0001B6803F48063002BF3D100BF4F4B1B68F3
:1015D00003F48063002BF9D04C4B1B6803F40063C9
:1015E0000BB141F0080105E0484B1B6803F4805340
:1015F00003B982E0454B1B6803F48063002BF3D1F1
:1016000000BF424B1B6803F48063002BF9D03F4BB3
:101610001B6803F400630BB141F0040105E03B4B90
:101620001B6803F4805303B967E0384B1B6803F46D
:101630008063002BF3D100BF344B1B6803F480633D
:10164000002BF9D0314B1B6803F400630BB141F060
:10165000020105E02D4B1B6803F4805303B94CE0F5
:101660002A4B1B6803F48063002BF3D100BF274B88
:101670001B6803F48063002BF9D0244B1B6803F430
:1016800000630BB141F0010105E0204B1B6803F43E
:10169000805303B931E01D4B1B6803F48063002BBA
:1016A000F3D1FFF7EFFD4FF40063184C0C342360C7
:1016B00000BF164B1B6803F48063002BF9D0117038
:1016C00005E0124B1B6803F4805303B915E00F4B80
:1016D0001B6803F48063002BF3D14FF400630B4CC1
:1016E00008342360521C431CD8B2084B1B6803F417
:1016F0008053002B7FF4FCAE00BF4FF40063034C1B
:10170000083423605B10236010BD0000080C01400A
:1017100010B501202149086002200860002401E082
:10172000601C84B242F210708442F9DB002401E0B4
:10173000601C84B242F210708442F9DBFFF770F94A
:10174000002401E0601C84B242F210708442F9DB94
:10175000002401E0601C84B242F210708442F9DB84
:10176000C021412000F0A2F86021422000F09EF844
:101770007F21432000F09AF82021442000F096F8C1
:101780000520FFF72CFB002211461046FFF71BFB3C
:101790006421402000F08AF810BD0000140C0140C4
:1017A00010B56521402000F081F8002401E0601CA4
:1017B00084B24EF660208442F9DB10BD10B564217E
:1017C000402000F073F8002401E0601C84B24EF663
:1017D00060208442F9DB10BDF8B50546002407E01F
:1017E000052000F02BF800909DF8000000B100E00B
:1017F000F6E700BF9DF8000000F00100D8B1092015
:1018000000F01CF80646082000F018F806EB00204F
:1018100084B20CB92046F8BD00200090FFF7A8FA6A
:1018200001216846FFF7BDFA21462846FFF7A6FAD0
:10183000FFF798FA00E000242046ECE738B50446AC
:10184000FFF796FA04F07F00009001216846FFF749
:10185000A8FA01216846FFF791FAFFF783FA9DF88D
:10186000000038BD38B504460D460521062000F0BD
:101870001DF80121062000F019F880200090FFF7E4
:1018800077FA01216846FFF78CFA29462046FFF7D0
:1018900088FAFFF767FA0321062000F007F800BF77
:1018A0002620FFF7CBFF0028FAD038BD38B5054613
:1018B0000C4645F080008DF800008DF80140FFF7E0
:1018C00057FA02216846FFF76CFAFFF74BFA38BD6A
:1018D00070B54FF40055244E3560FFF7D3FCAD10C2
:1018E000361D3560FFF7CEFC6D1035602CE00478B6
:1018F0008022002319E004EA020525B14FF40065B7
:10190000194E356004E04FF40065174E361D356002
:1019100052104FF48065144E3560FFF7B3FC361D4E
:101920003560FFF7AFFC5D1CEBB2082BE3DB4FF437
:1019300000650D4E3560FFF7A5FC6D103560FFF7B3
:10194000A1FC361D3560401C0D00A1F10106B1B2AD
:10195000CDD14FF48065044E35606D003560AD002B
:10196000361D356070BD0000100C01408C19000858
:10197000000000207400000028010008001A000880
:1019800074000020F40C000044010008000000AACC
:10199000AAAA96690025000090C402EDFD3EB1BBE5
:1019A000B0975231531167FFEEC402EDFD3EB1BB5B
:1019B000B0FFFFFF9752315311675B00000000003A
:1019C0000000000000000000000000000000000017
:1019D0000000000000000000000000000000000007
:1019E00000000000000000000000000100000000F6
:1019F00001020304010203040607080902040608A1
:04000005080000ED02
:00000001FF
