:020000040800F2
:1000000008CC0020F5010008FD010008FF010008F0
:1000100001020008030200080502000800000000B9
:1000200000000000000000000000000007020008BF
:1000300009020008000000000B0200083D1600083D
:100040000F0200080F0200080F0200080F0200084C
:100050000F0200080F0200080F0200080F0200083C
:100060000F0200080F0200080F0200080F0200082C
:100070000F0200080F0200080F0200080F0200081C
:100080000F0200080F0200080F0200080F0200080C
:100090000F0200080F0200080F0200080F020008FC
:1000A0000F0200080F0200080F0200080F020008EC
:1000B0000F0200080F0200080F0200080F020008DC
:1000C0000F0200080F0200080F0200080F020008CC
:1000D0000F0200080F0200080F0200080F020008BC
:1000E0000F0200080F0200080F02000800000000C5
:1000F0000000000000000000000000000000000000
:1001000000000000000000000F0200080F020008BD
:100110000F0200080F0200080F0200080F0200087B
:100120000F0200080F0200080F0200080F0200086B
:100130000F020008150800080F0200080F0200084F
:100140000F0200080F0200080F0200080F0200084B
:1001500000F002F800F03FF80AA090E8000C82449A
:100160008344AAF10107DA4501D100F034F8AFF277
:10017000090EBAE80F0013F0010F18BFFB1A43F085
:10018000010318472C6600004C660000103A24BF9B
:1001900078C878C1FAD8520724BF30C830C144BFEC
:1001A00004680C607047000000230024002500262E
:1001B000103A28BF78C1FBD8520728BF30C148BFCA
:1001C0000B607047732900F07B81002070471FB5DA
:1001D0001FBD10B510BD00F0BFF91146FFF7F7FFC6
:1001E00002F036FE00F0DDF903B4FFF7F2FF03BCC6
:1001F00001F0D5FA0948804709480047FEE7FEE7C5
:10020000FEE7FEE7FEE7FEE7FEE7FEE7FEE7FEE7C6
:1002100004480549054A064B70470000951600083A
:100220005101000808C6002008CC002008C80020A2
:1002300008C80020704700000FB4044910B503AA95
:10024000029800F041F910BC5DF814FB1C0000207E
:100250002DE9F0410E460446002020622046E16868
:10026000884730B3252805D0D4E901219047206A7A
:10027000401CF2E7E168204600278847050018D0B7
:10028000A5F14100192802D820354FF40067324605
:10029000294620462760FFF795FF40B1012804D08A
:1002A000F61D26F007060836D8E7361DD6E728469D
:1002B000DAE7206ABDE8F08170B50C460546012AF0
:1002C00005D02878800600D5EA69002302E00123E2
:1002D00005E05B1C934202D2E05C0028F9D1A869DA
:1002E000E618C01AA861286A184428622846AFF3A5
:1002F000008004E0D5E9012114F8010B9047B442D5
:10030000F8D32846AFF3008070BD032A40F2308056
:1003100010F0030C00F0158011F8013BBCF1020F46
:10032000624498BF11F801CB00F8013B38BF11F8C7
:10033000013BA2F1040298BF00F801CB38BF00F8DE
:10034000013B11F0030300F0D180083AC0F00880AF
:1003500051F8043B083A51F804CBA0E80810F5E73F
:10036000121D5CBF51F8043B40F8043BAFF3008022
:10037000D20724BF11F8013B11F801CB48BF11F897
:10038000012B24BF00F8013B00F801CB48BF00F867
:10039000012B70474FF0000200B513469446964675
:1003A000203922BFA0E80C50A0E80C50B1F1200188
:1003B000BFF4F7AF090728BFA0E80C5048BF0CC036
:1003C0005DF804EB890028BF40F8042B08BF704794
:1003D00048BF20F8022B11F0804F18BF00F8012B06
:1003E000704700004FF0013C50F8042B51F8043BDB
:1003F0009A4221D1A2EB0C03934313EACC1317D1F9
:1004000050F8042B51F8043B9A4215D1A2EB0C038F
:10041000934313EACC130BD150F8042B51F8043B4F
:100420009A4209D1A2EB0C03934313EACC13DBD01D
:100430004FF00000704700BFD01A01BAB1FA81F145
:1004400001F0180122FA01F0CB40C1F12001DBB22A
:10045000C0B2C01A2CFA01F3D11A914311EAC311A8
:10046000E6D17047704770477047704701694A1C72
:1004700002610878704700B58FB0CDE901310021E5
:10048000059105497944CDE9031011466846FFF707
:10049000DFFE0FB000BD0000E5FFFFFF10B54369B0
:1004A00013B1AFF3008001E0FFF706FF012010BD9C
:1004B000127800F124010A7000224A700122EDE74F
:1004C00011684FF0FF32E9E7074B70B50D467B44EA
:1004D000FFF7D1FF0446284600F03AF810B14FF07C
:1004E000FF3070BD204670BDFB1A000010B5203AE9
:1004F000C0F00B80B1E81850203AA0E81850B1E8DD
:100500001850A0E81850BFF4F5AF5FEA027C24BF92
:10051000B1E81850A0E8185044BF18C918C0BDE889
:1005200010405FEA827C24BF51F8043B40F8043B52
:1005300008BF7047D20728BF31F8023B48BF11F807
:10054000012B28BF20F8023B48BF00F8012B704761
:10055000007B00F080007047754600F02BF8AE4637
:1005600005006946534620F00700854618B020B5BF
:10057000FFF74EFEBDE820404FF000064FF00007A9
:100580004FF000084FF0000B21F00701AC46ACE83B
:10059000C009ACE8C009ACE8C009ACE8C0098D46A8
:1005A000704710B50446AFF300802046BDE8104008
:1005B000FFF71ABE00487047A4C5002070B5044676
:1005C0000E46154655202070681C60700220A070F1
:1005D0002A463146E01CFFF798FE6178E81C21545A
:1005E00000212154AA21281D2154681D70BD70B519
:1005F00006460C462078552802D04FF0FF3070BDDB
:1006000065786A1EE11C3046FFF77FFE681EF6E73C
:1006100000E0401E0028FCD17047000001494861FD
:10062000704700000090024029B1064AD269024397
:10063000044BDA6104E0034AD2698243014BDA6178
:10064000704700000090024030B10749896941F0CD
:100650000201054A916105E00349896921F002011F
:10066000014A9161704700000090024030B50C468D
:1006700013460021104D286000BF18E000EB011266
:100680004FF00045156044F2F0555560C1EB41153F
:1006900005EB811504EB051595605D1E8D4204D9AF
:1006A00000EB01151035D56000E0D060491C99427F
:1006B000E4D3024DE86030BD2400002000900240E9
:1006C00021B1426822F00042426003E0426842F0F9
:1006D000004242607047000030B10749896941F427
:1006E0000051054A916105E00349896921F40051EF
:1006F000014A9161704700000090024030B50C46FD
:10070000134600210F4D286000BF15E000EB0112D9
:100710004FF480151560C1EB411505EB811504EB15
:10072000051595605D1E8D4204D900EB011510354D
:10073000D56000E0D060491C9942E7D3024D2861A2
:1007400030BD0000200000200090024002680A43F3
:100750000260704710B50121880300F0ABFD002155
:100760004FF4804000F0A6FD10BD01B581B000201F
:1007700000900198009002E00098401E00900098C0
:100780000028F9D10CBD00000348806940F48010B6
:1007900001498861704700000090024001480068EC
:1007A000806870472000002001460868C0F30D40B3
:1007B0007047000000B500220F480068006800F094
:1007C0000040B0B90C480068008800F4004080B9CF
:1007D00009480068008800F4807050B1064800683D
:1007E000008800F4007020B103480068FFF7DCFFC8
:1007F0000246104600BD00002400002000200449ED
:10080000096801F0010109B1012000E000207047F2
:100810000090024010B501E000F0AEFCFFF7CAFF07
:100820000028F9D14020FFF7F9FE4FF48030FFF7A0
:10083000F5FE10BD2DE9F04188B004460F464FF09B
:1008400000080025002007908B4E01908B48056919
:1008500025F01C0502A800F04DFD039E8848864245
:1008600005D38848864202D245F0080509E085484C
:10087000864205D38048864202D245F00C0500E04E
:1008800000BF7E4805614FF400420021384600F069
:100890006BFA18B9002008B0BDE8F0817A48FFF77C
:1008A00064FF206800284FD000BF0198401C0190D1
:1008B0000121384600F030F900F0040018B97349FE
:1008C00001988842F1D371490198884201D10020F2
:1008D000E1E7002001904FF480520021384600F0FB
:1008E00043FA08B90020D6E700BF0198401C0190E8
:1008F0000121384600F010F900F0200018B96349D2
:1009000001988842F1D361490198884201D10020C1
:10091000C1E7002001901021384600F0FDF8804624
:1009200008F0040018B14FF40060206201E00020DC
:10093000206208F0020018B14FF48040606116E0B8
:100940004FF48040606112E0206AC0F3CF0061691B
:10095000C1F34F0140EA01020021384600F004FAD9
:1009600008B9002097E76FF07F40FFF7FEFE43488D
:10097000056847480540D4E901010843E168084398
:100980002169084361690843A1690843E169084393
:10099000216A0843616A0843A16A0843E16A08437F
:1009A000216B0843616B0843054334480560D4E973
:1009B0000E010843216C0843616C0843A16C084395
:1009C000E16C0843216D0843616D08432B49486081
:1009D000A06D8860E06DC860084685694FF641707B
:1009E0000540B4F86010606E40EA0140A16E084313
:1009F000E16E0843216F0843616F084305431F48B8
:100A00008561D4E91E0108431C49C86121488569F4
:100A100021480540D4E920010843D4F88810084350
:100A2000D4F88C100843D4F890100843D4F89410EC
:100A30000843D4F898100843D4F89C100843D4F81D
:100A4000A0100843054313488561D4E929010843F0
:100A5000D4F8AC100843D4F8B0100843D4F8B4105C
:100A600040EA8100D4F8B810084340F40000094976
:100A7000086001200FE70000008793030080024018
:100A8000002D3101C00E1602FFFF0F00FFFF040012
:100A90000F8120FF00900240233FDEF810B50B7954
:100AA0004C7943EA0422094B03441A64CB781B06B1
:100AB0008C7843EA04434C7843EA04230C7843EAF5
:100AC0000402024B03445A6410BD0000008002403F
:100AD00030B10749096841F00401054A116005E099
:100AE0000349096821F00401014A116070470000C0
:100AF0000080024030B10749096841F00801054A09
:100B0000116005E00349096821F00801014A1160FC
:100B1000704700000080024018B502460B460021D5
:100B2000002000901548016901F01C014FF4784045
:100B300000EAC22001434FF4F86000EA8310014349
:100B400021F0020141F001010C48016100BF009851
:100B5000401C00900948016901F0010018B1084CDF
:100B60000098A042F3D3064C0098A04201D1002087
:100B700018BD0248406980B2FAE7000000800240D8
:100B8000FFFF04001EB50021002200920192029294
:100B9000214A1268126802F0004282B100220092DB
:100BA0001E4A526902F0800222B180221B4B5A6118
:100BB00000229A609DE81C0080E81C001EBD164AB9
:100BC0001268128802F40042B2B9134A12681288FD
:100BD00002F4807282B1104A1268128802F4007224
:100BE00052B10D4A12681268C2F30D42111F0A4A2F
:100BF00012689268019200E000210091064A126892
:100C00000292054A1268D268034B1A609DE81C00E4
:100C100080E81C0000BFD1E72400002000900240C3
:100C20000348006840F00100014908607047000077
:100C30000090024000B50120FFF75CFFFFF7A4FD24
:100C40000120FFF745FF0120FFF746FD0120FFF7D8
:100C5000FBFC00BD0021016041608160C160016159
:100C60004FF48041416100218161C16101624162B3
:100C70008162C162016341638163C1634021016498
:100C80002021416400218164C16401654165816561
:100C9000C16501668021416600218166C1660167E8
:100CA00041678167C1674FF08061C0F880104910CB
:100CB000C0F884104910C0F88810C910C0F88C1012
:100CC0000021C0F89010C0F89410C0F89810C0F837
:100CD0009C10C0F8A0104FF00071C0F8A4100021C3
:100CE000C0F8A8104FF40031C0F8AC104912C0F899
:100CF000B0100021C0F8B410C0F8B8107047000060
:100D0000014617480068006800F0004008B1002064
:100D10007047C1F30C00124A126850601048006816
:100D2000006840F040500E4A126810600C4800689D
:100D3000006840F000400A4A1268106009484069A3
:100D400000F0040020B10420064A506100205060E9
:100D500003480068C068024A10600120D8E700001C
:100D6000200000200090024038B503460C460021C8
:100D7000002000901448016901F01C014FF47840F4
:100D800000EAC32001434FF4F86000EA84100143F5
:100D900041F0020141F001010B484261016100BFD5
:100DA0000098401C00900848016901F0010018B14A
:100DB000064D0098A842F3D3044D0098A84201D1F3
:100DC000002038BD0120FCE700800240FFFF040046
:100DD00000B5AFB0012000F001F94FF4004000F081
:100DE0007BFB012000F072FB00BF3D2000F04AFBBE
:100DF0000028FAD00B2000F063FBFFF7ABFCFFF7F5
:100E00000FFF00BFFFF7FAFC0128FBD06846FFF791
:100E100021FF01200090002007904FF400700A90FD
:100E200000200B900E9011901390149015904FF499
:100E3000006008904FF4602003904FF40000019090
:100E400040100290002020904FF00070219000117F
:100E5000239000202590269004202890C0052990FA
:100E600040122A9080012B9040122C9040002E902E
:100E700001216846FFF7DEFC012802D004A000F043
:100E800083F901210648FFF7CFFB2FB000BD00001A
:100E900045544820496E6974204572726F72000093
:100EA0004000010008B50121182000F013FA40208D
:100EB000ADF8000003208DF8020010208DF803002B
:100EC00069460F4800F090F88020ADF8000003203C
:100ED0008DF8020004208DF803006946084800F0F0
:100EE00083F8C020ADF8000003208DF80200142024
:100EF0008DF803006946034800F076F808BD00004D
:100F000000100140000C014010B5FFF7CBFF10BDF1
:100F100008B50420ADF8000003208DF80200182069
:100F20008DF8030069462A4800F05EF80220ADF80B
:100F3000000003208DF8020018208DF80300694698
:100F4000244800F051F84FF46050ADF80000032041
:100F50008DF8020018208DF8030069461E4800F045
:100F600043F88220ADF8000003208DF80200042031
:100F70008DF803006946164800F036F83020ADF8C9
:100F8000000003208DF8020004208DF8030069465C
:100F9000104800F029F84020ADF8000003208DF83B
:100FA000020000208DF803006946094800F01CF893
:100FB0004FF48070ADF8000003208DF80200182077
:100FC0008DF803006946024800F00EF808BD0000E5
:100FD0000008014000100140000C01400149086078
:100FE00070470000DC0020422DE9F0410246002558
:100FF0000026002000230024002791F803C00CF0F5
:101000000F0591F803C00CF0100CBCF1000F03D0D9
:1010100091F802C04CEA050591F800C0BCF1000F40
:1010200031D0146800202BE04FF0010C0CFA00F3D3
:10103000B1F800C00CEA03069E4220D183004FF0B5
:101040000F0C0CFA03F7BC4305FA03FC4CEA04044A
:1010500091F803C0BCF1280F06D14FF0010C0CFA37
:1010600000FCC2F814C00AE091F803C0BCF1480FBC
:1010700005D14FF0010C0CFA00FCC2F810C0401C66
:101080000828D1D31460B1F800C0BCF1FF0F34DDE3
:10109000546800202EE000F1080C4FF0010808FA17
:1010A0000CF3B1F800C00CEA03069E4221D1830084
:1010B0004FF00F0C0CFA03F7BC4305FA03FC4CEAA3
:1010C000040491F803C0BCF1280F05D100F1080C0D
:1010D00008FA0CF8C2F8148091F803C0BCF1480F6C
:1010E00007D100F1080C4FF0010808FA0CF8C2F81B
:1010F0001080401C0828CED35460BDE8F081000069
:1011000000B589B016A103C9CDE9040101F048FF7B
:1011100002F0CAF8144800F08BFF08906FF0FF004F
:1011200000F086FF07901048FC3000F081FF069029
:1011300004A800F06DFA0D480D49002206ABCDE978
:101140000021029007AA08A90A4802F0FDF8094800
:1011500002F048F9074802F093F909B000BD000019
:1011600000000000000100000201A8C0E71C000808
:10117000511D00082C03002010B5024800F00EFE9F
:1011800010BD00002C03002010B50446214602A02B
:10119000FFF752F810BD000025730A0D0000000093
:1011A00008B500214FF0006000F06AF84FF4A0602D
:1011B00000F048F83D208DF8000000208DF8010077
:1011C0008DF8020001208DF80300684600F002F857
:1011D00008BD000070B5002100230F22C47804B3BD
:1011E000154C246804F4E064C4F5E064210AC1F1FC
:1011F0000403CA40447804FA03F18478144021437C
:1012000009010E4C0678A155047804F01F0501244D
:10121000AC4005786D11AD0005F1E025C5F8004141
:1012200009E0047804F01F050124AC40044D067861
:10123000761145F8264070BD0CED00E000E400E0BA
:1012400080E100E002490143024A1160704700005A
:101250000000FA050CED00E010B5002807DA0A07D7
:10126000140E054A00F00F031B1FD45403E00A07B5
:10127000130E024A135410BD18ED00E000E400E024
:10128000024A0A400243024B1A60704780FFFF1F68
:1012900008ED00E029B1064A52690243044B5A6145
:1012A00004E0034A52698243014B5A6170470000CF
:1012B0000010024029B1064A926A0243044B9A6226
:1012C00004E0034A926A8243014B9A62704700002D
:1012D0000010024029B1064A92690243044B9A6108
:1012E00004E0034A92698243014B9A61704700000F
:1012F000001002402DE9F0410021002200250023CA
:101300000026002400278C46DFF86081D8F804808E
:1013100008F00C0121B1042907D0082959D109E0AE
:10132000DFF84C81C0F8008058E0DFF84881C0F851
:10133000008053E0DFF83481D8F8048008F470129C
:10134000DFF82881D8F8048008F48035920C0D2A43
:1013500001D0921C00E0062235B9DFF81C8102FBA7
:1013600008F8C0F8008033E0DFF80081D8F82C805E
:1013700008F48036DFF8F480D8F82C8008F00F08E5
:1013800008F1010446B9DFF8EC80B8FBF4F808FB7B
:1013900002F8C0F800801BE0DFF8D080D8F82C807D
:1013A000C8F3031808F10107DFF8C080D8F82C80D3
:1013B000C8F3032808F1020CDFF8B880B8FBF7F88F
:1013C00008FB0CF8B8FBF4F808FB02F8C0F8008042
:1013D00004E0DFF89C80C0F8008000BF00BFDFF8A9
:1013E0008C80D8F8048008F0F0010909DFF88C80BF
:1013F00018F80130D0F8008028FA03F8C0F804800B
:10140000DFF86880D8F8048008F4E061090ADFF8A2
:101410006C8018F80130D0F8048028FA03F8C0F87E
:101420000880DFF84880D8F8048008F46051C90AC1
:10143000DFF8488018F80130D0F8048028FA03F863
:10144000C0F80C80DFF82480D8F8048008F440410C
:10145000890BDFF82C8018F80130D0F80C80B8FB2D
:10146000F3F8C0F81080BDE8F081000000100240E1
:1014700000127A0040787D0100093D00BE00002086
:10148000CE00002010B501460022002300204A11A2
:10149000012A02D1094C236806E0022A02D1074C36
:1014A000236A01E0054C636A01F01F0201249440A5
:1014B0001C400CB1012000E0002010BD00100240D3
:1014C0000149C871704700000010024001490867D7
:1014D000704700000000424201460020034AD06AE3
:1014E00020F470400843D0627047000000100240B2
:1014F00010B500F001F810BD0CB50020019000906F
:101500003F48006840F480303D49086000BF3C48D7
:10151000006800F4003000900198401C0190009891
:1015200018B90198B0F5A06FF1D13548006800F402
:10153000003010B10120009001E0002000900098E0
:1015400001285CD12F48006840F010002D49086048
:101550000846006820F0030008600846006840F074
:1015600002000860264840682549486008464068EF
:1015700048600846406840F4806048600846C06A99
:10158000214908401E49C8620846C06A1F490843ED
:101590001B49C8620846006840F08060086000BFD0
:1015A0001748006800F000600028F9D0144840682F
:1015B00020F47C10124948600846406840F4E81066
:1015C00048600846006840F08070086000BF0C4822
:1015D000006800F000700028F9D00948406820F049
:1015E0000300074948600846406840F00200486030
:1015F00000BF0348406800F00C000828F9D10CBD7A
:10160000001002400020024000F0FEFF44060100EE
:1016100010B5044620780849087060784870A078B2
:101620008870E078C8702079087160794871214627
:101630000020FFF733FA10BD3C00002010B500F089
:1016400095F80F480078401C0D4908700D48007847
:10165000162814D108460078282810DB0A4800789C
:10166000AA2809D0094801680948006802F0E2FD8B
:1016700002F08AFD0649086000200149087010BD8B
:10168000000000200B0000201000002018000020A7
:101690000C00002010B51648006840F00100144905
:1016A00008600846406813490840114948600846E8
:1016B0000068114908400E4908600846006820F497
:1016C000802008600846406820F4FE004860084614
:1016D000006820F0A05008604FF47F008860002070
:1016E000C862FFF705FF4FF000600449086010BDB5
:1016F000001002400000FFF0FFFFF6FE08ED00E0E2
:1017000010B586B0FFF7C6FF01214FF4E030FFF7B8
:10171000C1FD01213D20FFF7DDFDFFF7F9FBFFF7DC
:101720003FFDFFF755FB01A8FFF7E4FD6421019899
:10173000B0FBF1F4B4F1807F00D311E024F07F40DE
:10174000401E4FF0E02148610F214FF0FF30FFF7BE
:1017500083FD00204FF0E02188610720086100BF71
:101760000121881EFFF778FD06B010BD0248006811
:101770000A3001490860704704000020024600203A
:10178000B1F5007F00D100BF13880B400BB10120E1
:1017900000E000207047C1F30802828070470146D4
:1017A00000BF704700BF00BF00BF00BF00BF00BF49
:1017B00000BF00BF70472DE9FC4706468846174624
:1017C00000BF1EB900BF00BFBDE8FC8700BF78891D
:1017D0002A2803D2384602F07BF8F5E77C6801201E
:1017E00000F033FCE189884214D140F2046000F03B
:1017F0002CFC618A88420DD14FF4006000F025FC7A
:10180000218A884206D140F6060000F01EFCA1891C
:10181000884203D0384602F05BF8D5E7E0690190D2
:10182000D4F826000090706810B94FF0000907E066
:1018300000987168884201D1012000E000208146B3
:10184000B9F1000F07D0012304F1160201A93046B7
:1018500004F0CEFE06E0002304F1160201A9304692
:1018600004F0C6FEA08A00F0F0FB012802D0022896
:1018700033D131E0B9F1000F2CD0022000F0E5FBAC
:10188000A082E069C4F826007068E06100BF96F8A5
:101890002000062801D000BF00BF00BF062512E0CF
:1018A000681EC5B204F11600415D0A3041550A3880
:1018B000405D605518F8051004F11600415518F800
:1018C0000510A01D4155002DEADC39463046B269AD
:1018D000904700E000BF01E000E000BF00BF3846D5
:1018E00001F0F6FF00BF6FE770B504460E4600BF7B
:1018F00014B900BF00BF70BD00BF7568D5F81A00ED
:10190000A1680840D4E901121140884200D0F2E7F2
:101910000023AA1D05F11A01204604F069FE00BF4C
:10192000E9E700002DE9FC4104460E4615460E216C
:10193000304602F019F818B16FF00100BDE8FC81E3
:1019400000272146284600F0DFFC08B1254F40E083
:101950004FF0704001F0AAFD296800EA01084FF03D
:10196000604001F0A3FD80451DD101208DF80000ED
:1019700000208DF801005E208DF80200286801F03B
:1019800095FDC0F306408DF80300286801F08EFD38
:10199000000A8DF80400286801F088FDC0B28DF8B7
:1019A00005006F4615E02868A1680840D4E90112D7
:1019B0001140884207D0E06810B104F10C0502E044
:1019C0006FF00300BAE732462946204600F00CF8D3
:1019D000B4E73B4604F121023146204600F05CF9B1
:1019E000ACE70000806700082DE9F84F81460F46FC
:1019F000164609F1210A4FF0FF300090494638465B
:101A000000F082FC78B94FF0704001F04FFD39686A
:101A100000EA01054FF0604001F048FD854202D028
:101A20000FB1386818B96FF00900BDE8F88F0121CF
:101A3000384600F0C9F90446002C01DA2046F4E7E4
:101A400004EB8400554901EB8000807B30B9012014
:101A500004EB8401514A02EB8101887300BF04EB5F
:101A600084004E4901EB8000807B012808D004EB04
:101A7000840001EB8000807B022801D000BF00BF02
:101A800000BF04EB8400454901EB8000807B012806
:101A900000D02EB93946484600F0E8F8009000BF63
:101AA000002E79D004EB84003C4901EB8000807B60
:101AB00002280CD104EB840001EB800000F1080344
:101AC00052463146484600F0E7F8009064E004EBE7
:101AD0008400324901EB8000807B01285CD14FF00B
:101AE000000B354610E000BF68892989884203D180
:101AF000286808B100BF00BF00BF287B012802D0C2
:101B00004FF0010B02E02D68002DECD100BFBBF1BE
:101B1000000F10D029890022032001F0D3FC0546D4
:101B20006DB13146284601F018FE40B1284601F05B
:101B3000CFFE002503E03546284601F0B3FF55B33C
:101B4000062001F0E3FB8046B8F1000F1FD0002013
:101B5000C8F80000C8F8045004EB84000F4951F89D
:101B6000200060B104EB84010C4A52F8210000E02F
:101B7000006801680029FBD1C0F8008004E004EB94
:101B80008400064941F820800020009002E02846A9
:101B900001F09EFE00BF00BF009846E7240400202D
:101BA0002DE9F84F0746884691469A46DDF828B059
:101BB0000020009000222A21032001F083FC064629
:101BC0001EB94FF0FF30BDE8F88F00BF70892A289A
:101BD00001D200BF00BF00BF74680D9800F035FA55
:101BE000A08200BF97F82000062801D000BF00BFE8
:101BF00000BF062512E0681EC5B21AF8051004F1F0
:101C0000160041550B98415D04F12000415519F82B
:101C10000500605518F80510A01D4155002DEADC9F
:101C2000DBF80000E0610C980068C4F82600012091
:101C300000F00BFAE0814FF4006000F006FA208219
:101C400040F2046000F001FA608240F6060000F005
:101C5000FCF9A08131463846BA6990470090304679
:101C600001F036FE00260098ADE700007FB504467F
:101C70000D460121064A201D04F121038DE82500AF
:101C80000391044A19462046FFF78AFF04B070BD4D
:101C900086670008806700082DE9F04705460F4673
:101CA000904699467E6800BF95F82000062801D02E
:101CB00000BF00BF00BF062408E0601EC4B219F8D0
:101CC0000400305518F80410B01D0155002CF4DC48
:101CD0004FF4006000F0B9F9B08139462846AA698E
:101CE0009047BDE8F08770B504460D466668B08938
:101CF00000F0ABF9B0F5006F03D0A0F60600F8B91C
:101D000017E021462846FFF7EFFD6FF00D01204652
:101D100001F02AFE40B100BF00BF00BF00BF204657
:101D200001F0D6FD002403E02946204600F0BAFB6E
:101D30000BE0224605F121012846FFF73CFD04E0B7
:101D4000204601F0C5FD002400BF00BF002070BD8B
:101D500070B5044600BF0CB900BF00BF00BF08202B
:101D600001F050F9054615B94FF0FF3070BDE5613F
:101D7000732084F82B0074212C20015505486061E4
:101D80000548A06104F121002860204600F094FF7E
:101D90000020EBE725190008D12D000870B5044696
:101DA000204600F0DBFF064616B94FF0FF3070BD4D
:101DB000214630462269904705461DB1304601F064
:101DC00087FD00262846F2E72DE9FC5F05460F4611
:101DD0004FF00A08C1460A260024A34600200190BD
:101DE000B2460090CDB17748007800EB800076498C
:101DF00001EB8000807B02280FD1286871490978A7
:101E000001EB8101704A02EB81014968884204D1EB
:101E10006C48007840B2BDE8FC9F002473E00A2EB5
:101E200008D104EB8400684901EB8000807B08B98D
:101E300066B266E004EB8400634901EB8000807BBE
:101E4000012836D165B1286804EB84015E4A02EBB3
:101E500081014968884203D15A48047060B2DAE7C8
:101E600004EB8400584951F8200088B104EB840049
:101E700001EB8000C17B0098814242DB4FFA84FA7B
:101E800004EB8400504901EB8000C07B009038E0F7
:101E900004EB84004C4901EB8000C07B584530DBEB
:101EA0004FFA84F804EB840001EB800090F80FB047
:101EB00027E004EB8400444901EB8000807B02288A
:101EC0001FD165B1286804EB84013F4A02EB810110
:101ED0004968884203D13B48047060B29BE704EB39
:101EE0008400394901EB8000C17B0198814208DB05
:101EF0004FFA84F904EB8400334901EB8000C07B86
:101F00000190601CC4B20A2C89DB0A2E02D107F0B2
:101F1000010010B107F0020010B14FF0FF307AE776
:101F20000A2E01DAF4B22AE0B9F10A0F0BDA09F04D
:101F3000FF0400BF04EB8400234951F8200008B1DE
:101F400000BF00BF1BE0B8F10A0F02DA08F0FF047F
:101F500015E0BAF10A0F0FDA0AF0FF0404EB84016E
:101F6000194A52F8210000F043F8002004EB8401E4
:101F7000154A42F8210002E04FF0FF304BE700BF66
:101F80000A2C01DB00BF00BF00BF002004EB84016E
:101F90000D4A02EB8101887345B105B900E028685C
:101FA00004EB8401084A02EB81014860002004EB45
:101FB0008401054A02EB8101C8730248047060B2D3
:101FC00029E70000300000202404002070B50446FA
:101FD0000D46E1B20548FFF7DEFB00BF8021034854
:101FE000FFF7CCFB0028F9D0204670BD0038014037
:101FF00070B5044600BF0CB900BF00BF00BF00BFF2
:10200000606808B900BF00BF00BF0EE02546246825
:1020100000BF686808B900BF00BF00BF686801F072
:1020200057FC2946062001F029F9002CEED170BD9D
:102030000146080601F47F4240EA022001F47F02D3
:1020400040EA122040EA1160704701460806000C81
:1020500040EA1120704770B505460C462246032120
:10206000284600F0CBF870BD2DE9FF5F0546894694
:102070006C68208801F020FAC0F3032087007942C1
:10208000284601F071FC10B92889042800D2ACE080
:10209000686890F800A0BAF1080F6ED101264FF0E1
:1020A000704001F003FA216900EA010B4FF0604033
:1020B00001F0FCF9834500D10026494604F11000E7
:1020C00000F022F900B1002626B9284601F000FCF4
:1020D000BDE8FF9F2889082800D286E0284600F046
:1020E000DBF818B1284601F0F3FBF1E7222128467E
:1020F00001F03AFC80B33946284601F035FC20B1A6
:1021000000BF00BF00BF00BF73E02989002202208A
:1021100001F0D8F9064606B96BE000BF718907F1F6
:102120000800814201D200BF00BF00BF29463046EF
:1021300001F013FB20B100BF00BF00BF00BF58E09B
:102140007468784201B2304601F00EFC28B100BF3D
:1021500000BF00BF00BF4CE004E0284601F0B8FB20
:1021600035460BE06FF02101284601F0FDFB28B158
:1021700000BF00BF00BF00BF3BE030E0D5F80480E7
:10218000E06803902069E06003982061002088F8EF
:102190000000A8F80200208901F08EF9C0B240F4D6
:1021A0007F463046FFF751FF20810020608139468D
:1021B000284601F0D9FB18B100BF00BF00BF0DE0F9
:1021C00001200021FF230A46CDE90109009104F115
:1021D0000C01284600F04EFA064600BF00E000BFA2
:1021E00000BF284601F074FB72E7284601F070FB3F
:1021F0006EE7284601F06CFB00BF69E72DE9FC475C
:1022000006460F46904600222421012001F05AF98B
:1022100005460DB9BDE8FC8700BF6889242801D2B6
:1022200000BF00BF00BFD6F804906C68277084F828
:1022300001800020A080E08071686A6802F10800D7
:102240001C22FEF762F8002060806989204600F0B9
:1022500019F8608001200021FF2309F10C02CDE96B
:102260000010284600F0ECF9284601F031FB00BFD1
:10227000D0E770B505460C4622460B212846FFF7ED
:10228000BDFF70BD70B504460D462946204600F0DE
:10229000B9FDC04380B270BD2DE9F041064600246F
:1022A0000027354617E06989686800F0ABFD0444F3
:1022B000A0B200EB1444688900EBD0714910A0EB88
:1022C000410139B1C7F10100C7B2E0B2C4F307213F
:1022D00041EA00242D68002DE5D127B1E0B2C4F316
:1022E000072141EA0024E04380B2BDE8F08100000C
:1022F0004020034948610349086080200860704716
:1023000000100140100C014030B503461A68D0435C
:1023100000B10AB9012030BD91F82A0000F0020096
:1023200008B90020F7E74868904201D10020F2E7A1
:1023300018688C682040D1E901452C40A04208D1A2
:10234000886822EA00008D68EC43A04201D1012098
:10235000E1E70020DFE700002DE9F74F86B088466F
:10236000B8F82800059014200190022200211046A0
:1023700001F0A8F8054625B94FF0FF3009B0BDE8D7
:10238000F08F059868812881454820F00300686037
:102390006C680698142241682046FDF7B6FFE08875
:1023A00001F08AF80746C7F30C00049007F40050C8
:1023B000039006980089143886B20599A1F114009B
:1023C000C11700EB5171C1F3CF0B61E005981438D0
:1023D000B04201DB012000E0002002900498C0F32D
:1023E0000C00039940EA0107029808B947F4005726
:1023F000029808B1304601E04FEACB001FFA80FA9C
:10240000524604F11401019B069801F014FA019957
:10241000084480B201903846FFF717FEE0800AF1C9
:10242000140188B2FFF711FE608000206081142142
:102430002046FFF727FF6081029828B106F11400BB
:1024400081B2284601F0D6FA00221146022001F09E
:1024500039F88146B9F1000F0DD02946484601F000
:1024600068F9D8F8143049464046089A98474846D3
:1024700001F02EFA05E0284601F02AFA4FF0FF306D
:102480007CE7A6EB0A0086B20498584480B2049018
:10249000002E9BD1284601F01BFA00206EE70000B9
:1024A000C7BF00202DE9F04706460F467468208814
:1024B00001F002F80421B1EB203F05D0304601F0D5
:1024C00007FA0020BDE8F087208800F0F5FFC0F390
:1024D00003294FF6FF7000EA8909608800F0ECFFDD
:1024E00080467089484502DB3089404504DA304631
:1024F00001F0EEF90020E5E74146304601F07AFAB6
:102500004FF0010A3D4600BF284600F051FF70B170
:10251000281D60B1686850B120696968884205D09B
:10252000294604F11000FFF7EFFE00B10DE0BAF10B
:10253000000F04D04FF0000A3E48056800E02D6807
:10254000BD4200D12D68002DDED100BF394604F117
:102550000C00FFF7D9FE60B94FF0704000F0A6FF05
:10256000E16800EA010A4FF0604000F09FFF8245F9
:1025700004D1304601F0ACF90020A3E725B930467C
:1025800001F0A6F900209DE743F6FF70FFF75DFD1F
:10259000E188084038B1304600F0EEF806460EB942
:1025A00000208FE774682448076024480460394697
:1025B000304601F0D7FAA8BB208900F07DFFC0B2F9
:1025C00001280DD0062806D011280ED139463046F4
:1025D00003F040FF25E03946304602F04FF920E095
:1025E00039463046FFF740FD1BE0394604F1100044
:1025F000FFF78AFE88B94FF0704000F057FF21695D
:1026000000EA010A4FF0604000F050FF824504D01C
:10261000746002213046FFF71EFD304601F058F984
:1026200000BF00BF0020044908600449086000BFE3
:1026300048E7000058000020AC000020B000002057
:102640002DE9FE4F05460E4614461F46DDE90C896E
:10265000204600F009FBB0F1000A02D1001FBDE8DE
:10266000FE8F3B462246314628468DE8000700F0A3
:1026700001F8F4E72DE9F05F05460F4690469A46CB
:102680000C9EB8F1000F60D04FF0140914212846B9
:1026900001F06AF918B16FF00100BDE8F09F6C68B5
:1026A00000BF6889142801D200BF00BF00BF208985
:1026B00000F002FF6AF31F208346FFF7C6FC20816B
:1026C000208900F0F9FE01120B9840EA012B5846D0
:1026D000FFF7BBFC2081B8F1000F01D1002001E021
:1026E000D8F800002061CB464FEAE97109EB9171FF
:1026F00089104FF4804242EA01210A9A114388B2BC
:10270000FFF7A3FC20802889FFF79FFC6080002052
:10271000E08018480088FFF798FCA08015480088E2
:10272000401C144908800FB1386830B9301D08B911
:10273000002000E07068E06004E00FB9002000E0D5
:102740003868E0600020608102E06C6804F11008E5
:10275000308D48B12889318D884205DD42463146A9
:102760002846FFF7F9FD98E7424629463046736947
:10277000984792E7B40000202DE9FC5F80460020D6
:102780000090D8F80450288800F096FEC0F303208B
:102790001421B1EB800F00D0B1E0E88800F08CFE8E
:1027A000C0F30C004FF6FF7101EAC00A688800F020
:1027B00083FE8346288800F07FFEC0F30320ABEB46
:1027C000800080B20190404600F0BEFF06464E48B1
:1027D000018888190A280ADD3146284600F006FAE1
:1027E00020B14948008830440A2800DD87E0474886
:1027F000046812E06069E968884209D1A069296922
:10280000884205D1A089A988884201D1012000E031
:10281000002000B103E000942468002CEAD100BF3E
:1028200034B93146284600F061F9044694B966E0AF
:10283000E88800F041FEC0F30C0058B9E08900F0D0
:102840003BFEC0F30C0028B11422294604F1080015
:10285000FDF75BFD2C48008830442B490880E88850
:1028600000F02AFE00F4005030B9A07F40F00100D3
:10287000A07701985044A0834146204600F048F8D4
:10288000D0B3A08B1430A08360684068076860688C
:102890004568142204F108012846FDF736FDA08B97
:1028A000FFF7D3FB68800020E88068811421284668
:1028B000FFF7E8FC6881D4F804800CE0D7F80490B6
:1028C0006FF01301384601F04FF83946404600F0EA
:1028D00008FFD9F80070002FF0D12046009900F0D1
:1028E000EBF8404600F030FF07490988081A06490E
:1028F00008804046BDE8FC9FFFE70020FAE740461D
:1029000000F0E6FF0020F5E7BC000020B800002042
:102910002DE9FE4F06460F46002501200090D7F80E
:1029200004A0BAF8020000F0C7FD8346BAF8000020
:1029300000F0C2FDC0F30320ABEB800080B2019039
:10294000BAF8060000F0B8FDC0F30C004FF6FF71B6
:1029500001EAC000029000BF00BF7C680020206038
:102960000298A080DDE901100844E080D6F80490C8
:102970002EE0D9F80480A088B8F80410884210DA54
:10298000C4F800905DB1A088E988884204DBE08843
:10299000B8F80410884200DD7EE02F6000E0776028
:1029A00019E0A088B8F80410884200D174E0A0882B
:1029B000B8F80610884200DA6EE035B1E888B8F859
:1029C0000410884201D000200090D8F800904546BD
:1029D000B9F1000FCDD100BFB9F1000F17D17DB112
:1029E00000BFE888A188884201DD00BF00BF00BFAA
:1029F0002F60E888A188884209D00020009006E076
:102A000000BF706808B100BF00BF00BF7760B07F33
:102A100000F00100E8B30098C0B370684068808897
:102A200010B10020009031E02546D4F800900BE072
:102A3000D9F80440E888A188884202D0002000909C
:102A400005E02546D4F80090B9F1000FF0D100BFA1
:102A50000098D8B100BF706808B900BF00BF00BFC0
:102A600000BF70684068A04201D100BF00BF00BF36
:102A700000BF206808B100BF00BF00BF00BFE088F2
:102A8000B18B884201D000BF00BF00BF0098BDE8F5
:102A9000FE8FFFE70020FAE7384600F055FE0549B3
:102AA0000988081A03490880384600F011FF002001
:102AB000EDE70000BC00002070B504460D460A4852
:102AC0000068A04203D108492068086006E000BF02
:102AD0000DB900BF00BF00BF206828602146052057
:102AE00000F0CCFB70BD0000B800002070B50546BA
:102AF0000E46052000F00AFC044664B9314628461B
:102B000000F074F8B04203DB052000F0FFFB044640
:102B10000CB9002070BD20212046FDF73BFC0320AE
:102B2000E0770648006820600448046014222946C3
:102B300004F10800FDF7E9FB2046EBE7B8000020B0
:102B40002DE9F04704460F46002600BFA74201D1F9
:102B500000BF00BF00BF37B100BF3868A04201D03E
:102B600000BF00BF00BF6068D0F80480B8F8040060
:102B7000A0B96568D8F800006060142204F108016B
:102B80006868FDF7C2FB01212846FFF772FB284663
:102B900000F0DAFD0644284600F09AFE65680CE075
:102BA000D5F80480A946D8F80050484600F0CCFD7E
:102BB0000644484600F08CFE00BF002DF0D1394697
:102BC0002046FFF779FF00BF07480088B04201DACE
:102BD00000BF00BF00BF04480088801B0249088076
:102BE0003046BDE8F0870000BC0000202DE9F05F12
:102BF00005468946002700BF0026B346B24619485D
:102C000004681DE06069E968884207D1A069296904
:102C1000884203D1A089A988884201D0012000E020
:102C2000002048B10AF1010A0EB9264604E0E07F0F
:102C3000F17F884200DC2646206800B1A346246864
:102C4000002CDFD12EB159463046FFF779FF804680
:102C500047444F4502DABAF1010FCDDC3846BDE8F2
:102C6000F09F0000B800002070B5054610480468C9
:102C70000EE0204600F09CFB48B12868A16808409F
:102C8000D4E901121140884201D1204670BD246868
:102C9000002CEED10748006820B10648006800F01B
:102CA00087FB08B90020F1E702480068EEE7000062
:102CB000580000205C00002070B50446062084F80F
:102CC00020002148007884F821001F484178222004
:102CD00001551D488178232001551B48C1782420C7
:102CE00001551948017925200155174841792620B9
:102CF000015540F2DC502085322084F82A0002225F
:102D000012491348FDF7FAFC042212491248FDF754
:102D1000ADFC002506E0104901EB05100121FDF78F
:102D2000CFFC6D1C042DF6DB002507E0084901EB04
:102D300005104FF44001FDF709FD6D1C022DF5DB78
:102D4000FDF778FF70BD00003C0000200C1D002046
:102D50002C0500204C050020EC0400202DE9F04358
:102D600087B081460026002501A8FDF70BFF01A8CA
:102D700007C804AB07C3049887B2DDF814800322A8
:102D80003946104600F09EFB054665B12C4608E02A
:102D9000628908EB06016068FDF7B7FA60890644AE
:102DA0002468002CF4D14FF00040069908600748D1
:102DB000406900F0800020B1802004494861002073
:102DC0008860284607B0BDE8F0830000009002400C
:102DD0002DE9F04180460E460025FDF7DFFC074651
:102DE000344607E0628978196168FDF78EFA6089D8
:102DF00005442468002CF5D1A8B2FDF781FF00201E
:102E0000BDE8F0812DE9F04180460E46002445469C
:102E100008E0287807026D1C287807436D1C3C44A5
:102E2000B01E86B2012EF4DC002E02DD28780702E7
:102E30003C44A0B200EB1444200C000410B1A0B23A
:102E400000EB1444A0B2FFF700F9BDE8F0810000E8
:102E5000FEF756FCFEF754F9FEF756F8FFF748FA6E
:102E60002448FDF7D5FB16202349087001F08CF9A2
:102E7000224908603DE02248806800F08000C0B12F
:102E8000204800F0A3FE20490870084602781D493A
:102E90001E48FDF793FB1E4908700123084602787F
:102EA0001A491648006803F0B1FA1448006802F0A5
:102EB0006DF818491148006803F070F91648007859
:102EC000B8B116491648FDF792FB16490870002064
:102ED0001349144A1278885412480078401C11494A
:102EE0000870084601780E4803F0FEFB00200A49EE
:102EF0000870C0E7905F01000B0000200C0000206C
:102F0000001001409C01002009000020D400002096
:102F10000A000020B1420008110000205C030020DC
:102F2000640200200800002070B5044604B970BD9A
:102F300000BF04F0030008B100BF00BF00BF00BF26
:102F400014480068844203D313480068844201D3C4
:102F500000BF00BF00BF0F480068844203D30E4883
:102F60000068844200D3E2E7A4F1080500BF287995
:102F700008B900BF00BF00BF0020287107480068E3
:102F8000854201D205480560284600F091FD00BF4A
:102F9000CDE70000480000204C0000205000002039
:102FA00000BF00BF124921F00301124A116011460F
:102FB00008684FF4A0410180002141800171114651
:102FC000096801F5A0410C4A1160012112681171D4
:102FD0004FF4A041084A12681180074A12685180D4
:102FE0000121064A117003490968054A11607047BA
:102FF000EF280020480000204C0000205400002052
:103000005000002070B502460AB9002070BDD01CE7
:1030100020F0030082B20C2A00DA0C22B2F5A04F95
:1030200001DD0020F2E740480088404E3688801BD2
:1030300083B272E03D480068C1180879002869D160
:103040000E8803F10800301A904263D30E8803F112
:103050000800361A02F11400864218D303F1080062
:10306000104485B231480068441900202071088856
:10307000208063800D80012008712088B0F5A04F6A
:1030800007D02088294E36683044458001E0012071
:10309000087125480068814220D107E02248006875
:1030A0000088224E366830441F4E30601E4800684B
:1030B000007928B11C4800681D4E3668B042EDD139
:1030C00000BF194800681A4E3668B04205D016484D
:1030D0000068007908B100BF00BF00BF00BF01F168
:1030E00008001044124E3668B04201D900BF00BF3C
:1030F00000BF00BF01F0030008B100BF00BF00BF68
:1031000000BF01F0030008B100BF00BF00BF01F124
:1031100008007BE705480068C35AC2F5A040984202
:1031200088DC002072E700005000002048000020EA
:103130004C0000202DE9F04105460A46D01C20F045
:10314000030082B20C2A00DA0C22B2F5A04F02DD95
:103150000020BDE8F08100BF45480068854203D3E8
:1031600044480068854201D300BF00BF00BF40480B
:103170000068854203D33F480068854201D3284652
:10318000E7E7A5F108043A480088201A86B22088AB
:10319000801B083887B200BFBA4201DD00BF00BF04
:1031A00000BFBA4201DD0020D3E7BA4201D1284670
:1031B000CFE72088DFF8B8C0DCF800C000EB0C01D6
:1031C000087980BB088806F1080C94441FFA8CF338
:1031D000DFF8A4C0DCF800C08C4508D1DFF890C04F
:1031E000DCF800C09C44DFF89080C8F800C0DFF82D
:1031F00080C0DCF800C00CEB03014FF0000C81F83C
:1032000004C008804E802380B1F800C0BCF5A04FF8
:1032100008D0B1F800C0DFF85880D8F80080C44466
:10322000ACF8023022E0FFE702F11400B8421DD8EA
:1032300006F10800104483B20D480068C1180E481A
:103240000068814201D20C4801600020087120888A
:1032500008804E8023800888B0F5A04F06D00888EB
:10326000DFF80CC0DCF800C060444380284670E7FB
:10327000480000204C0000205000002001B9704799
:1032800000BF01F003030BB100BF00BF00BF0A463F
:10329000044B53F820301360024B43F8202000BF4A
:1032A000EDE700000079002010B5002001E0431C8C
:1032B00098B20928FBDB114B23F00301002019E031
:1032C00000230F4C44F8203000220CE00C4B53F844
:1032D00020300B600A4B43F820100A4B33F81030B3
:1032E0001944531C9AB2084B33F810309342EDDC6A
:1032F000431C98B20928E3DB10BD000027790020A9
:10330000007900208C6700089E670008024600BF15
:10331000092A03DB00BF00BF0020704700BF094837
:1033200050F8221059B1074B086843F8220000BF3B
:1033300001F0030008B100BF00BF00BF00BF084696
:10334000EBE70000007900202DE9F04704460D4628
:1033500016461F46DDE909A9DDF8208000206060DF
:10336000A060E06084F82A00C4F81C800E48007851
:1033700084F82D000C480078401C0B490870C4F8F4
:1033800010903B4632462946204600F017F820466A
:10339000D04710B10020BDE8F087044800682060E5
:1033A000024804602046F6E7600000205800002034
:1033B000014691F82A0000F0010070472DE9F04124
:1033C00006460F4614461D463946304600F016F8AC
:1033D0002146304600F04EF82946304600F008F805
:1033E000BDE8F08101490860704700005C000020E2
:1033F00009B9002200E00A68C26070472DE9F04177
:1034000007460D4628687968884201D1012000E00E
:10341000002018BB154806680CE0306879688842BF
:1034200007D1D6F80C800121304600F0EFFC46466B
:1034300000E0F668002EF0D10D4804680CE054B1AD
:10344000206840B120687968884204D10DB9002015
:1034500000E028682060E468002CF0D10DB900205D
:1034600000E028687860BDE8F0810000740000206A
:103470007000002009B9002200E00A6882607047ED
:1034800010B5044694F82A0000F0010068B914F859
:103490002A0F40F00100207014F82A0900F02000E3
:1034A00018B1211D2046FEF7E1FB10BD00B5034613
:1034B0001846FEF7BDFD00BD00B502461046FEF7FA
:1034C000C4FD00BD2DE9F05F83460F4691460026FE
:1034D000BBF1000F09D0BBF1010F0AD0BBF1020F05
:1034E0000BD0BBF1030F0DD10BE006F1140086B237
:1034F00000BF06F1140086B200BF06F10E0086B2CE
:1035000007E006E000BF00BF00BF00BF0020BDE82D
:10351000F09F00BFB9F1000F7AD0B9F1010F78D058
:10352000B9F1020F76D0B9F1030F74D100BF0820B2
:10353000FFF7ECFE044600BF0CB90020E7E784F873
:103540000C900020206006F110002044C01C20F0E8
:103550000300606000BF207900F0030008B100BFE5
:1035600000BF00BF2781F01C20F0030040F2DC51B7
:10357000081AB84201DD384605E0F01C20F00300CF
:1035800040F2DC51081A608100BF61896068014423
:1035900004F2EC50814201D900BF00BF00BF00BF60
:1035A000F01C20F0030040F2DC51081A002801DC76
:1035B00000BF00BF00BF0120E081A2466089A7EBE9
:1035C000000848E000BF0820FFF7A0FE054600BF46
:1035D00025B9204600F07CF9002098E785F80C908A
:1035E000002068732860CAF8005000BF4FF6FF70D3
:1035F000804501DB00BF00BF00BFA5F808801FFAAF
:1036000088F040F2DC51884206DA1FFA88F005E0C3
:1036100025E049E049E057E040F2DC50688105F1DF
:103620001000686000BF287900F0030008B100BFF7
:1036300000BF00BF00BF61896068014404F2EC5024
:10364000814201D900BF00BF00BF0120E881688925
:10365000A8EB0008AA46B8F1000FB3DC3AE006F187
:10366000130121F00302F91C21F00301114488B277
:10367000FFF7C8FC04460CB9002048E704F110002D
:103680003044C01C20F00300606027816781002067
:10369000206084F80C9000BF207900F0030008B18E
:1036A00000BF00BF00BF15E000BF0720FFF72EFEE0
:1036B00004460CB900202AE700206060278167815A
:1036C000206084F80C9005E000BF00BF00BF00BF81
:1036D00000201CE700BF0120E0810020607320462D
:1036E00015E710B5024600BF02B111B900BF00BF17
:1036F00010BD00BF104604E003890C8923440381F8
:1037000000680368002BF7D100BF03894489A342F6
:1037100001D000BF00BF00BF00BF03680BB100BFF6
:1037200000BF00BF03890C8923440381016000BFEF
:10373000DEE730B505460C4621462846FFF7D1FFA7
:10374000204600F0AFF930BD0146002002E0421CE7
:10375000D0B209680029FAD170472DE9F04104463A
:103760000D460026002700BF24B11DB120892989FC
:10377000884205DA00BF00BF6FF00900BDE8F081A4
:1037800000BF00BF00BF0CB900BF00BF00BF608911
:10379000801B6989C91B884204DB6889C01B1FFA2A
:1037A00080F803E06089801B1FFA80F86A68D119ED
:1037B000626890194246FCF7A8FD06EB080086B245
:1037C00007EB080087B200BF6089B04201DA00BF92
:1037D00000BF00BF6089B04201D10026246800BF4D
:1037E0006889B84201DA00BF00BF00BF6889B842EB
:1037F00001DC00272D6865B168892989884208D1D4
:1038000000BF286820B100BF00BF6FF00800B5E717
:1038100000BF64B160892189884208D100BF206857
:1038200020B100BF00BF6FF00800A7E700BF002D68
:10383000A8D10020A2E72DE9F05F80468946164610
:103840001D464FF0000B00BFB8F1000F04D100BFC0
:1038500000BF0020BDE8F09F00BF00BFB9F1000F1E
:1038600003D100BF00BF0020F4E700BF4FF0000A03
:10387000B8F1000F02D0B9F1000F01D10020E9E743
:10388000444620E035B16089A84203DC6089281AEB
:1038900085B217E06089401B87B2B74200DD37462A
:1038A0006268511909EB0A003A46FCF72EFD0BEB52
:1038B00007001FFA80FB0AEB07001FFA80FAF01BD3
:1038C00086B2002524680EB1002CDBD15846C1E732
:1038D0002DE9F04104463CB900BF0CB900BF00BF60
:1038E00000BF0020BDE8F08100BF207B50B1207BED
:1038F000012807D0207B022804D0207B032801D098
:1039000000BF00BF00BF00262AE000BFE0890028FA
:1039100001DC00BF00BF00BFE089401E1FFA80F835
:10392000A4F80E80B8F1000F18D12768257B032D6D
:1039300004D121460820FFF7A1FC0BE0012D01D0A6
:10394000022D04D121460720FFF798FC02E0204613
:10395000FFF7EAFA701CC6B23C4600E0002400BF44
:10396000002CD2D13046BDE770B5024600BF0AB97F
:1039700000BF00BF00BF01B10AB9002070BD00291F
:103980000ADA484284B200BF5089A04203DA00BF7D
:1039900000BF0120F2E700E08CB2137B55680BB149
:1039A000032B0AD15068401A506002F1100056688B
:1039B000864217D255600120E0E7022B01D0012B8F
:1039C0000AD1002906DA5089A04203DB5068401A68
:1039D000506007E00120D1E700BF00BF00BF00BF7B
:1039E0000120CBE750890844508110890844108198
:1039F0000020C3E72DE9F04105460F4600BF0DB991
:103A000000BF00BF00BF00BF287B032809D0287B70
:103A1000012806D0287B20B1287B022801D000BFD6
:103A200000BF00BF2889B84201DCBDE8F0812889C9
:103A3000A7EB00083E462C4613E06089301A86B298
:103A400000BF4FF6FF70804501DB00BF00BF00BF25
:103A5000208940442081246800BF0CB900BF00BF0A
:103A600000BF6089B042E8DB207B78B96089B04252
:103A70000CD0A088001B304481B22046FFF75AFBCF
:103A8000044600BF0CB900BF00BF00BF668160895B
:103A90002081206810B12068FFF71AFF0020206005
:103AA00000BFC2E710B1C189491CC1817047000045
:103AB00030B500BF284B1B68984201D200BF00BF41
:103AC00000BF00BF254B1B68984201D300BF00BF59
:103AD00000BF00BF03790BB100BF00BF00BF00BF34
:103AE0000388B3F5A04F01DD00BF00BF00BF03880E
:103AF000194C24681919884215D00B799BB9174BBA
:103B00001B6899420FD0164B1B688B4201D1144B96
:103B100018600B880380104B1B88C31A0C880E4D4D
:103B20002D682C44638043880B4C24681A19824208
:103B300011D013797BB90A4B1B68834201D1084B22
:103B40001A6003881380044B1B88D31A0488024D23
:103B50002D682C44638030BD480000204C000020BC
:103B6000500000202DE9F04705468A464FF0000836
:103B70006F683889FFF7A0FC00F0FF0900261248A3
:103B8000046819E0207C484514D1606990B107F1C0
:103B90000C032A462146D4E905C0E04750B1002570
:103BA0004FF0010836B1E068F06007480068E06057
:103BB000054804602646E468B8F1000F01D1002CE6
:103BC000E0D14046BDE8F0876400002010B5024611
:103BD000002000BF8B4B9B6803F08003002BF9D0C3
:103BE00000BF894B1B6803F04003002BF9D1FAE0BA
:103BF000002100BF844B1B6803F04003002BF9D069
:103C0000814B1B6803F080030BB141F0800105E09C
:103C10007C4B9B6803F0800303B9ECE07A4B1B6894
:103C200003F04003002BF3D100BF774B1B6803F078
:103C30004003002BF9D0744B1B6803F080030BB1D9
:103C400041F0400105E06F4B9B6803F0800303B92E
:103C5000D1E06D4B1B6803F04003002BF3D100BF94
:103C6000694B1B6803F04003002BF9D0664B1B68BF
:103C700003F080030BB141F0200105E0614B9B682C
:103C800003F0800303B9B6E05F4B1B6803F0400309
:103C9000002BF3D100BF5C4B1B6803F04003002BEB
:103CA000F9D0594B1B6803F080030BB141F01001B0
:103CB00005E0544B9B6803F0800303B99BE0524B33
:103CC0001B6803F04003002BF3D100BF4E4B1B6871
:103CD00003F04003002BF9D04B4B1B6803F080032B
:103CE0000BB141F0080105E0464B9B6803F08003EF
:103CF00003B980E0444B1B6803F04003002BF3D171
:103D000000BF414B1B6803F04003002BF9D03E4B32
:103D10001B6803F080030BB141F0040105E0394B4F
:103D20009B6803F0800303B965E0374B1B6803F021
:103D30004003002BF3D100BF334B1B6803F040035B
:103D4000002BF9D0304B1B6803F080030BB141F01E
:103D5000020105E02B4B9B6803F0800303B94AE0A6
:103D6000294B1B6803F04003002BF3D100BF264B07
:103D70001B6803F04003002BF9D0234B1B6803F0B2
:103D800080030BB141F0010105E01E4B9B6803F07D
:103D9000800303B92FE01C4B1B6803F04003002B8A
:103DA000F3D1FDF7FFFC8023174C0C34236000BFD8
:103DB000154B1B6803F04003002BF9D0117005E090
:103DC000104B9B6803F0800303B914E00E4B1B6893
:103DD00003F04003002BF3D180230B4C0834236005
:103DE000521C431CD8B2074B9B6803F08003002B86
:103DF0007FF4FEAE00BF8023034C083423604023D1
:103E0000236010BD00100140080C01402DE9FF5F48
:103E100004460E46207C0A2808D12146204801F09D
:103E200009FB21460220FFF729FA37E0A76DD4F8F5
:103E300024800CB9002000E020680290201D08B901
:103E4000002000E060680390B4F818A0B4F8209057
:103E5000D4F89050D4F814B02146124801F0EAFA90
:103E6000A06F10B1A06F02F06DFA606F10B1606FBB
:103E700002F068FA21460220FFF700FA00BF1DB1E8
:103E80006FF004015846A84700BF3EB103AB02AA39
:103E900041463846CDE900A902F0EDF9BDE8FF9FA3
:103EA000780000207400002070B506460220FFF75D
:103EB0002DFA04466CB900F061FF0220FFF726FAE4
:103EC000044634B9304600F02DFF0220FFF71EFAF9
:103ED0000446002C39D0A0212046FCF75BFA402094
:103EE000183404F8070C40F66830A4F85600002097
:103EF000A4F8580040F6683020826082002004F860
:103F00000E0CFF2004F80D0C4FF4067020840620E0
:103F100020860020A0850620E085C01FE0830120C8
:103F2000608701F025F80546E5642564656325652D
:103F300007480068A061002020770648E066064830
:103F4000E067002084F88500183C204670BD000022
:103F500068000020A361000800DD6D00416170472A
:103F600070B50546287C082868D2DFE800F00436E2
:103F7000414C5567675E002400BF36480068A84280
:103F800005D134480068C068324908601CE03148F7
:103F900000683149086012E02F480068C06848B1E5
:103FA0002D480068C068A84204D12B49E868096818
:103FB000C86008E028480068C068274908602648AB
:103FC00000680028E8D100BF0020E86000BF294653
:103FD0000220FFF753F9002533E0002429461F484B
:103FE00001F028FA29460320FFF748F9002528E0C8
:103FF000002429461A4801F01DFA29460220FFF73D
:104000003DF900251DE00121284602F0AAF90446E9
:104010000CB90520287414E00121284602F0A1F90A
:1040200004460CB9052028740BE00121284602F053
:1040300098F904460CB90920287402E000240025F0
:1040400000BF00BF1DB114B9284600F09FFF2046F5
:1040500070BD00006C0000207C000020700000207B
:10406000740000202DE9FC4704460E469046994610
:1040700000BF207C28B100BF00BF6FF00C00BDE87E
:10408000FC8700BF16B13068606002E06FF0080086
:10409000F5E7A4F82080208B10B900F02DFF2083D5
:1040A00000F066FF054600206062A565681EE064BA
:1040B000A06640F6683020856085606AE06240F660
:1040C0006830A4F85C004FF406702087208F3146DA
:1040D00000F0A7F920870120A4F85200208F00EB00
:1040E00080004FF6FF7101EA4000A4F8540002205E
:1040F0002074C4F8889000BF20480068A04205D111
:104100001E480068C0681D4908601CE01B48006824
:104110001B49086012E01A480068C06848B1184896
:104120000068C068A04204D11549E0680968C86009
:1041300008E013480068C06811490860104800682A
:104140000028E8D100BF0020E06000BF00BF0D489C
:104150000068E0600B48046000BF012000210223DA
:104160000A46CDE90010204600F072F9074617B95B
:10417000204600F00BFF384681E700006C0000206D
:104180007C0000207400002008B500F0AFFE0A4952
:1041900008600846006858B10848FDF749FF0090DC
:1041A000074B41F69072694603480068FFF75AFFD3
:1041B0000148006808BD0000140000200101A8C0EB
:1041C000C54100082DE9F04107460D46164600247A
:1041D00026BB0C20FEF716FF0446C4B10120207058
:1041E00065600020A06021462846FFF7B7FE0E4913
:1041F000284601F0D3FF0D49284602F0C0F80122FD
:104200000B49284601F06EF90020BDE8F0812146F7
:10421000284600F00FF84FF0FF30F6E72146284619
:1042200000F008F83046F0E7B14200080544000805
:104230007142000870B505460C460021284601F081
:10424000ADFF0021284602F09AF8002211462846C8
:1042500001F048F914B12046FEF766FE2846FFF744
:104260007FFE55200149087070BD0000100000203D
:104270002DE9F04105460F462C467CB1A06820B1DF
:104280002146384600F096F806E02078032803D14E
:1042900021463846FFF7CEFF002605E001213846CB
:1042A000FFF7B4FD6FF004063046BDE8F081000072
:1042B0002DE9F047074689461446984600BF0FB9D6
:1042C00000BF00BF00BF3D462B48056074B9032006
:1042D0002870A86820B929464846FFF7ABFF03E0DD
:1042E0002946484600F066F8002641E0B8F1000F84
:1042F00005D014B12046FFF7EBFA464638E028789F
:1043000001282DD162891D486168FBF7FEFF1B481B
:104310000078552806D1012019490870AA201949AA
:10432000087014E018A11548FCF75CF860B9012387
:1043300014221AA1484602F069F8484600F026FE09
:10434000AA201049087002E000200E490870218957
:10435000484601F03AFF2046FFF7BAFA002607E088
:104360002189484601F031FF2046FFF7B1FA0026C7
:104370003046BDE8F0870000180000205C030020F4
:1043800011000020100000204C756E72795F41739F
:104390006B536F636B657454797065004C756E7206
:1043A000795F536F636B6574547970655F53414DEA
:1043B000000000002DE9F04107460C46002616E0FB
:1043C000A5686A8901233846696802F01FF8064625
:1043D00056B92868A060A06810B1A068FFF762FB1A
:1043E0002846FFF775FA02E0701C00B9A5603EB9D7
:1043F000A06828B1A0684089B7F86E108842DFDD58
:10440000BDE8F0812DE9F04104460D4617462646E9
:10441000B06818B131462846FFF7CCFF0020BDE850
:10442000F0812DE9F04105460E463046FEF71CFCB2
:10443000044654B1208D40B1208D283887B2BD424A
:1044400001DA284600E0384605462846BDE8F081F6
:104450002DE9FF4F87B00546934600BFBBF1000F23
:104460000CD1159850B90A9800F0030030B900BF7C
:1044700000BF6FF009000BB0BDE8F08F00BF00BFB8
:10448000BBF1000F06D1089820B100BF00BF6FF04C
:104490000900F0E700BFB5F86E00584508DA95F856
:1044A000220040F0800085F822004FF0FF30E2E764
:1044B000CDF810B008980390159800F0010008B1ED
:1044C000042100E00021159800F0020008B10C2042
:1044D00000E0002001EB0009A86E0590B5F870809F
:1044E000B8F10C0F03DA4FF6FC70804508DD95F843
:1044F000220040F0800085F822004FF0FF30BAE73C
:10450000B8F1000F07D000BFA86F18B9686F08B9DD
:1045100000BF00BF07E000BFA86F08B9686F08B10F
:1045200000BF00BF00BF002426462746A246CCE0BD
:10453000288FA0EB09010498814203DA288FA0EBB1
:10454000090000E004981FFA80FA0420FEF7DEFE5E
:10455000044604B97AE10020206060600EB9264666
:1045600005E000BF0FB900BF00BF00BF3C60274699
:10457000149800F0010038B30AEB090081B2002260
:104580001046FEF79FFF606000B95FE100BF606802
:1045900040890AEB0901884201DA00BF00BF00BF71
:1045A0006068FFF7D1F840441FFA80F8089838B1E6
:1045B0006168496801EB090052460399FBF7A5FEC3
:1045C00060684068A0602CE0002249461046FEF773
:1045D00079FF606000B939E16068FFF7B5F84044E1
:1045E0001FFA80F8049800281BDD012251460320A1
:1045F000FEF768FF069028B96068FFF769F90020A8
:10460000606023E108F101001FFA80F80699039821
:1046100048600398A06060680699FFF762F8002080
:104620000690B8F10C0F03DC4FF6FC70804500DDFE
:104630000CE1A4F80CA014216068FFF795F900B113
:1046400004E1606840682061288BFDF7FEFC216969
:104650000880288CFDF7F9FC216948800598FDF752
:10466000E7FC216948600020216948822169888926
:10467000FEF722FF20F03F000A9908430290FDF761
:10468000E4FC216988811598A07321698889FEF767
:1046900013FF00F03F014FEAE97009EB90708010C2
:1046A000401D41EA003080B2CDE90109FDF7CDFCA3
:1046B000216988810498A0EB0A0080B204900598D3
:1046C00050440590039850440390002E3FF430AFBF
:1046D000049800283FF72CAF686F08B9002705E061
:1046E0006F6F00E03F6838680028FBD1002F67D06B
:1046F00039698889FEF7E0FE00F0010030B93969B8
:104700008889FEF7D9FE00F0020008B1012000E020
:104710000020B9890844E8B339698889FEF7CCFEDE
:1047200000F00300B0BB0A9800F0030090BBB8890A
:10473000B1890844298F884242DCB87BB17B88422A
:104740003ED109F1140251427068FFF70DF920B112
:1047500000BF00BF00BF00BF78E07068408978B933
:1047600070680290706800687060002102980160B3
:10477000A8F101001FFA80F80298FFF7A9F800BF1E
:1047800000BF706818B170684089002801DC00BF64
:1047900000BF00E014E000BF71687868FEF7A1FF79
:1047A000B889B1890844B88130683860B44202D110
:1047B0003C46B7F80CA031460420FEF75FFD03E04D
:1047C0000FB96E6700E03E600A9800F0020018B969
:1047D0000A9800F0010018B10BF101001FFA80FBEC
:1047E0000A9800F0010028B195F8220040F020005E
:1047F00085F8220055F8680F58442860E888A0EB37
:104800000B00E880A5F808802889683D38B100BF12
:10481000A86F18B9686F08B900BF00BF00BF9CB18E
:10482000BAF1000F10DD206970B1149800F0020099
:1048300050B921698889FEF73FFE40F008000290D8
:10484000FDF703FC21698881002014E695F8220019
:1048500040F0800085F8220016B1304601F072FD6C
:10486000B5F8700038B100BFA86F18B9686F08B903
:1048700000BF00BF00BF4FF0FF30FCE52DE9FC5F3B
:1048800006468A46F7497068086009680888FEF796
:1048900013FEC0F30320716801EB8000F249086049
:1048A000F04909680888FEF707FEC0F3032080007E
:1048B000C0F1000B59463046FFF756F810B9308961
:1048C000142804D23046FFF703F8BDE8FC9F514698
:1048D000E44800681030FDF717FD70B94FF07040E4
:1048E000FEF7E4FDDF490968096900EA010B4FF0B2
:1048F0006040FEF7DBFD834503D13046FEF7E8FF5D
:10490000E3E7D94909688889FEF7D6FD4FEA2039DF
:104910004FEA890041423046FFF726F818B1304689
:10492000FEF7D6FFD1E7D04909680888FEF7C4FD35
:10493000CD4909680880CC4909684888FEF7BCFD64
:10494000C94909684880C84909684868FEF7AEFD4A
:10495000C54909684860C5490860C349096888684D
:10496000FEF7A4FDC04909688860C1490860BE49D6
:104970000968C889FEF7A0FDBB490968C881BA4922
:1049800009688889FEF798FD00F03F00B949087072
:104990003089097801F0030109B1012100E000210B
:1049A0000844B54908800027B448046844E000BFC3
:1049B000207C08B900BF00BF00BF00BF207C0A28D0
:1049C00001D100BF00BF00BF00BF207C012801D182
:1049D00000BF00BF00BF208CA34909680988884236
:1049E00028D1208BA04909684988884222D19D4955
:1049F00060680968C96888421CD19A4920680968BA
:104A00000969884216D100BFE068A04201D100BF09
:104A100000BF00BF37B1E068F86098480068E06008
:104A20009648046000BFE068A04201D100BF00BF0B
:104A300000BF03E02746E468002CB8D100BF002C7B
:104A400051D18F48046826E000BF207C0A2801D09D
:104A500000BF00BF00BF208C8349096809888842D5
:104A600018D1208B804909684988884212D17D4934
:104A700060680968C96888420CD17A492068096869
:104A80000969884206D1204601F07CFC3046FEF7D9
:104A90001FFF1AE7E468002CD6D100277948056883
:104AA0001FE03DB1286828B16E4928680968096986
:104AB000884214D1288B6C490968498888420ED1F4
:104AC00037B1E868F8606F480068E8606D480560D5
:104AD000284600F071F93046FEF7FAFEF5E62F465B
:104AE000ED68002DDDD1002C78D0002066490860EB
:104AF0003089888170688860084646605A48006836
:104B0000086100206149086061490870E06FF0B1F8
:104B100000BFD4F8840040B100232146D4F884C0FB
:104B2000E26F6069E047804606E04FF00008E06F02
:104B300010B1E06FFEF7CCFE00BFB8F1000F02D15C
:104B40000020E06703E03046FEF7C2FEBDE65148B4
:104B50000460204600F0CCFC804600204D490860EF
:104B600008F10500002817D04948007800F0080037
:104B700098B100BFD4F8900028B16FF00501D4F8C7
:104B800090206069904700BF21463C4800F052FCED
:104B900021460220FEF772FB87E03D48007800F0D6
:104BA000100040B12146354800F044FC2146022067
:104BB000FEF764FB79E04FF00008B4F86C000028C1
:104BC00010DD00BFD4F8800048B1B4F86C20214655
:104BD000D4F8803060699847804602E070E04FF07A
:104BE000000800BF2948006850B32248007800F050
:104BF000080038B125480068407B40F00100234997
:104C00000968487300BFD4F8840048B100231F49E5
:104C1000D4F884C060690A682146E047804608E00D
:104C20004FF000081948006818B118480068FEF7EE
:104C30004FFE00BFB8F1000F02D014480068E067D3
:104C40001348007800F0200048B300BFD4F8840077
:104C500010B300231A462146D4F884C06069E047A7
:104C600080461BE08C00002088000020900000207F
:104C700094000020980000209A000020740000207A
:104C80007800002070000020B0BF0020A0000020AD
:104C90009C000020A40000204FF0000800BFB8F1E5
:104CA000000F02D1204600F071F91848406840B367
:104CB00016494868FEF70CFE00201449486020E0C1
:104CC000134909688889FEF7F7FB00F00400A8B9CA
:104CD0000F48006800880E4909684988CDE900102E
:104CE0000C4800680C4A128881180C4803680C3381
:104CF000026810320A48006801F0BDFA3046FEF73B
:104D0000E7FD00BF00BF00BFDFE50000B0BF00202F
:104D100088000020900000209A0000208C000020D5
:104D2000940000202DE9F04106464FF07F0800274F
:104D300000251048046813E0607CB0420FDC607C02
:104D400040450CDC0C49206B0968081AB84206D3B0
:104D50000949206B09680F1A254694F81180E46808
:104D6000002CE9D11DB101212846FFF74FF8BDE81D
:104D7000F0810000740000206800002070B500265B
:104D800000250B4804680BE00A49206B0968081AE3
:104D9000B04204D30749206B09680E1A2546E4681F
:104DA000002CF1D11DB101212846FFF72FF870BD6D
:104DB00078000020680000207CB505464448007853
:104DC00000F01000B8B14348006800884149096804
:104DD0004988CDE9001040480068404A128881188F
:104DE0003F4803680C33026810323E480068401C9C
:104DF00001F041FA69E03648007800F0020000282E
:104E000063D0687CFFF750F8044614B94FF0FF30C8
:104E10007CBD33480068103008B9002002E03048FB
:104E2000006800692060288B20832D4800680C30C2
:104E300008B9002002E02A480068C0686060254880
:104E40000068008820840320207423480068401CE8
:104E50006062606AE0621F480068C089A4F85C0074
:104E6000B4F85C00A4F854001B480068401E20669B
:104E700068696061E869E061288940F29911084039
:104E8000208100BF18480068E0601748046000BF38
:104E9000204600F057FA208F211DFFF7C2FA208725
:104EA0000120002112230A46CDE900102046FFF719
:104EB000CFFA06462EB100212046FEF7A7FF304666
:104EC000A6E7204600F062F8A2E70020A0E7000075
:104ED0009800002088000020900000209A00002008
:104EE0008C000020940000207400002010B54020A9
:104EF000FEF7DAFF10BD000000BF19480088401C13
:104F000080B2174A1080B0F5004F02DB4FF480509A
:104F100010801448016806E0088B114A12889042FC
:104F200000D1EAE7C9680029F6D10F48016806E018
:104F3000088B0B4A1288904200D1DEE7C96800292D
:104F4000F6D10A48016806E0088B054A12889042AB
:104F500000D1D2E7C9680029F6D10148008870471E
:104F600082000020740000207800002070000020E3
:104F70000448006804490968084402490860084672
:104F80000068704784000020680000202DE9FF5F62
:104F900004460020029096480068A04203D10020F9
:104FA00004B0BDE8F09FB4F85C00B4F85210884239
:104FB00002DAB4F85C0001E0B4F852008246656F92
:104FC000A66F26B100E0366830680028FBD194F85F
:104FD000220000F00200C0B34DB129694868FEF715
:104FE00065FAE16C401AA989084450452ED9029807
:104FF00000F1140100220120FEF764FA8046B8F1A6
:10500000000F02D16FF00100CAE794F8220020F0EF
:10501000030084F82200A06DFDF70AF807463B461E
:1050200041462046029A00F04BF903900621A07AEF
:10503000CDE90001E37A221D21464046FDF700FB41
:105040004046FEF745FC0020AAE7FFE7A4E000BFCA
:1050500029698889FEF730FA00F0040008B100BF22
:1050600000BF00BFA06F70B194F8220000F04000B4
:1050700048B9606F48B1606F006820B9606F80897F
:10508000218F884201DB012000E0002028B994F83C
:10509000220000F0A00000B98AE028686067207C48
:1050A000022810D029698889FEF706FA40F0100717
:1050B0003846FCF7CAFF2969888194F8220020F05D
:1050C000030084F822002146284600F093F829695D
:1050D0004868FEF7EBF9074629698889FEF7ECF97D
:1050E00000F0010030B929698889FEF7E5F900F080
:1050F000020008B1012000E00020A989084407EB64
:105100000009A06DB0EB090001D5C4F858902969D9
:105110008889FEF7D1F900F0010030B92969888942
:10512000FEF7CAF900F0020008B1012000E00020FB
:10513000A989084400282BDD00202860A06F10B941
:10514000A5672E4627E029694868FEF7AFF90746AC
:1051500031694868FEF7AAF9381A16D504F17807BC
:1051600000E03F68386860B1396809694868FEF74F
:105170009DF9834629694868FEF798F9BBEB000062
:10518000EFD4386828603D6005E03560366802E09D
:10519000284601F0C7F8656F55B129694868FEF7E0
:1051A00085F9E16C401AA989084450457FF64FAF54
:1051B00000BFA5B194F89C0088B929694868FEF73A
:1051C00075F9E16C401AA9890844B4F85C1088426A
:1051D00005D90020C4F89800012084F89C0094F8B8
:1051E000220020F0800084F822000020D8E6000091
:1051F000A40000202DE9FC4105460C46606AFCF73E
:1052000017FF29698860608DFCF71FFF2969C88135
:10521000618D606A0844E062286900F11408A87B87
:1052200000F0010030B12448FCF702FFC8F800008C
:1052300008F104080CB1206860B9201DFDF714FDC9
:1052400006460EB9BDE8FC81301D08B9002000E01B
:1052500070682060B4F93600401C08B90020E08670
:10526000E06B38B915480068E06329694868FEF7C3
:105270001DF92064288A69688988401A87B268689D
:105280004089C01B6968488168680089C01B6968DB
:105290000881696828694860002029690882062118
:1052A000A07ACDE90001E37A221D21466868FDF766
:1052B000C7F900BFC6E70000B4050402680000207B
:1052C0002DE9F04705460F46164698467C68288B20
:1052D000FCF7BBFE2080288CFCF7B7FE6080C4F88A
:1052E0000480686AFCF7A4FEA060A089FEF7E4F8D9
:1052F00020F03F0040F010094846FCF7A6FEA081D0
:10530000688DFCF7A2FEE08100206082A089FEF794
:10531000D3F800F03F01B146F01706EB9070801013
:10532000401D41EA00301FFA80FA5046FCF78DFE1E
:10533000A08100202082698D686A0844E8622046C6
:10534000BDE8F0872DE9F04780462B48006800F162
:105350001405294909688889FEF7AEF80521B1EBE3
:10536000203F46DA244909688889FEF7A5F8052117
:10537000C1EB20304FF6FF7101EA8006002436E0D1
:1053800015F80490B9F1000F06D0B9F1010F05D05E
:10539000B9F1020F21D104E0BDE8F087601C84B2AE
:1053A00024E0601C285C042802D1201DB04200DDEE
:1053B000F2E7E01C295CA01C285C41EA002740F2CF
:1053C000B450874200DC17B940F2B45000E03846D0
:1053D000A8F83800201D84B208E0601C285C00B9E1
:1053E000DAE7601C285C204484B200BF00BFB442EE
:1053F000C6DB00BFD0E700008800002010B50446DF
:10540000207CA8B1207C0A2812D0207C01280FD053
:10541000E06F20B1E06FFEF75BFA0020E067606F9D
:1054200000F090FFA06F00F08DFF00206067A06784
:1054300010BD000070B505460C4600BF2868A042AC
:1054400003D12868C06828601BE0254928680860E7
:1054500012E023480068C06848B121480068C0686D
:10546000A04204D11E49E0680968C86008E01C48F1
:105470000068C0681A490860194800680028E8D127
:1054800000BF0020E06000BF2046FFF7B7FF207C90
:105490000A2810D0207C01280DD094F8220000F0BA
:1054A000010040B194F8220040F0020084F822008C
:1054B0002046FFF76BFD207C01280BD000BF606FFA
:1054C00008B100BF00BF00BF00BFA06F08B100BFA0
:1054D00000BF00BF0020207400BF00BF70BD0000EF
:1054E0007C000020C0F88C1080F835207047000048
:1054F0002DE9FC4104460027B846FB48007800F03F
:10550000040070B3207C022806D1F849A06D096818
:1055100088420FD101270DE0F549606A0968081A31
:1055200008D4218D606A0844F1490968081A0028E6
:1055300000DC0127B7B100BF207C08B900BF00BF65
:1055400000BFEC48007840F00800EA49087094F881
:10555000220020F0010084F822006FF00500BDE871
:10556000FC8101E00020FAE7DF48007800F002004B
:1055700090B1207C02280FD0207C03280CD000BFE3
:1055800094F8220040F0020084F822002046FFF741
:10559000FDFC00BF0020E2E7D74800682063002040
:1055A00084F89D002046FFF7CDFE207C801E082851
:1055B00075D2DFE800F004A0F6F5F4F3F2F1CA4882
:1055C000007800F01000002879D0C748007800F07B
:1055D0000200002873D0A16F09694868FDF766FFD3
:1055E000401CC2490968884269D1B4F86E00401C69
:1055F000A4F86E00BE480068401C6062606AE06209
:10560000BA480068E064BD480068C089A4F85C003E
:10561000B7480068401E206604202074208F211D9A
:10562000FEF7FFFE2087208F00EB80004FF6FF7112
:1056300001EA4000A4F85400B4F85200012802D155
:10564000208F400000E0208FA4F8520000BFB4F883
:105650007000002801DC00BF00BF00BFB4F870007C
:10566000401EA4F87000A56F2868A067A06F18B945
:105670004FF0FF30E08603E00020E08684F84A0027
:10568000284600F04FFE00BFD4F8880048B1002241
:105690002146D4F8883060699847804603E0ECE101
:1056A0000DE04FF0000800BF00BF94F8220040F06A
:1056B000020084F822002046FFF768FC1AE08A48BE
:1056C000007800F01000A8B18C48006800888B4971
:1056D00009684988CDE9001085480068884A128821
:1056E0008118884803680C33026810327F480068CC
:1056F00000F0C1FDC2E17C48007800F010000028F5
:1057000067D0E06C401C79490968081A4AD4774987
:10571000A06D0968081A002844DC0420207400BF2A
:10572000E06908B900BF00BF00BF00BFE06930B149
:1057300000222146E36960699847804601E04FF006
:10574000000800BFB8F1000F06D001212046FEF787
:105750005DFB6FF0040002E7B4F85260204600F0F1
:105760009DF9012E02D1208F400000E0208FA4F887
:1057700052006048007800F0200060B100BF94F84B
:10578000220040F0020084F822002046FFF7FEFBD2
:1057900000BF072020742AE05BE115E128E0C6E0A5
:1057A0003DE026E05548006800885449096849886A
:1057B000CDE900104E480068514A128881185148BE
:1057C00003680C33026810324848006800F053FD4B
:1057D0000DE04548007800F0020040B1606A401ECC
:1057E00043490968884202D1204600F019FD45E18D
:1057F00000BF204600F052F93E48007800F020003B
:1058000060B100BF94F8220040F0020084F822004A
:105810002046FFF7BBFB00BF072020742EE1204687
:1058200000F03CF93348007800F02000A8B32E487F
:10583000007800F0100088B32C49A06D09688842F8
:1058400043D100BF94F8220040F0020084F8220007
:105850002046FFF79BFB00BF2046FFF7CFFD00BFB0
:1058600029480068A04205D127480068C068264939
:1058700008601EE0244800682449086014E02348BA
:105880000068C06858B121480068C068A04206D1CD
:105890001E49E0680968C8600AE03BE015E01B4863
:1058A0000068C06819490860184800680028E6D1F7
:1058B00000BF0020E06000BF0A20207400BF144831
:1058C0000068E0601248046030E000BF94F82200F5
:1058D00040F0020084F822002046FFF757FB00BF8B
:1058E0000820207422E0000098000020940000208E
:1058F000900000209C00002068000020880000200C
:105900009A0000208C000020740000207C00002001
:10591000780000205B48007800F0100030B15A4950
:10592000A06D0968884201D106202074A6E02046B7
:1059300000F0B4F85548007800F02000F0B300BF44
:1059400094F8220040F0020084F822002046FFF77D
:105950001DFB00BF2046FFF751FD00BF4C4800680B
:10596000A04205D14A480068C068494908601CE067
:10597000474800684749086012E046480068C06828
:1059800048B144480068C068A04204D14149E06879
:105990000968C86008E03F480068C0683D49086081
:1059A0003C4800680028E8D100BF0020E06000BF4C
:1059B0000A20207400BF3848006800E003E0E0607F
:1059C0003548046000BF59E0204600F067F82D48D4
:1059D000007800F01000D8B32B49A06D0968884208
:1059E00036D12046FFF70AFD00BF29480068A042D3
:1059F00005D127480068C068254908601CE0244894
:105A000000682449086012E022480068C06848B174
:105A100020480068C068A04204D11E49E0680968B7
:105A2000C86008E01B480068C0681A490860194847
:105A300000680028E8D100BF0020E06000BF0A2015
:105A4000207400BF14480068E0601348046000BF81
:105A500014E0204600F022F80A48007800F0100018
:105A600050B10949A06D0968884205D107480078FE
:105A700040F010000549087000E000BF00BF0020A2
:105A80006DE5000098000020940000209C0000209C
:105A9000740000207C000020780000202DE9FC5FCD
:105AA000044600200190FE48007800F01000002815
:105AB0007ED0B4F85C00616E00EB0109F949206EFC
:105AC0000968401A15D4F749206E0968884204D144
:105AD000F549606E0968401A0BD4F349606E096895
